:400000000080002011000000F90F0000F90F000008B5044B1A6803F53F5302331A6001F00BF800BFFA46004010B5054C237833B9044B13B10448AFF300800123237010BD63
:40004000B88AFF1F0000000044DC0000084B10B51BB108490848AFF300800848036803B910BD074B002BFBD0BDE81040184700BF00000000BC8AFF1F44DC0000C880FF1FD0
:400080000000000038B501F0E3FB20B101F0DAFB08B101F0FBFC00220F4B1A8001F0D2FBB8B101F067FD20B10C4801F07BFD0A4B1880094B1A8862B1094C25680749284696
:4000C00005F0DCFB044B1888284420606268801A1880014B188838BDD48AFF1FBC8BFF1FCC80FF1F0C4B5B88ABB110B501F04EFD0028FBD0084C6188084801F013FD63882E
:40010000402B07D101F042FD0028FBD00021084601F008FD10BD7047D48AFF1F048CFF1F70B58CB0174C237903EB83039D00164B1D44164EA06804F011FDCDE90A01E0689C
:4001400004F00CFDCDE90801206904F007FDCDE90601606904F002FDCDE90401A06904F0FDFCCDE902010095094B66220949304605F05CFC304605F045FD6080FFF7B2FFA5
:400180000CB070BDD48AFF1F448CFF1F048CFF1F50DC000054DC000070B5834C227F834B53F82210206A05F031F82062002400260FE0002002F084FC052001F01BF802F0F2
:4001C000EBFE02F0D5FE0146304605F021F806460134002CEDDD744D2C7F744B43F82460296A304605F014F828620134E4B22C77012C01D900222A774FF07C5105F010F94F
:400200006B4CA16805F002F8E16805F0BDF9664C0146606A04F0FAFF002104F0F9FFA06104F09CFC0022634B04F038FB0022624B04F012FE02460B4600205F4903F0F2F9C8
:4002400004F090FF20615D4905F0A6FA08B15B4A2261554C2369A36294F82C20584B53F82210206B04F0D2FF2063002400260FE0012002F025FC052000F0BCFF02F08CFEA8
:4002800002F076FE0146304604F0C2FF06460134002CEDDD444D95F82C40494B43F82460296B304604F0B4FF28630134E4B285F82C40012C02D9002285F82C204FF07C5123
:4002C00005F0AEF83A4C216904F0A0FF616905F05BF9354C0146606B04F098FF002104F097FF606104F03AFC0022324B04F0D6FA0022314B04F0B0FD02460B4600202E4927
:4003000003F090F904F02EFFE0602E4905F044FA08B12C4AE260244CE068A063216905F033F90546284604F019FC03F013FB04F019FF06464FF07E5104F06AFF0546314617
:400340004FF07E5004F062FF0146284605F01CF9E0632469204604F001FC0FA3D3E9002304F0CCFE10B100220F4BDA630E4BD86B04F0F4FB0AA3D3E9002304F0D3FE10B1DB
:40038000114A094BDA63084BDA6B9A601C64FFF7C7FE70BDAFF300809A9999999999B93FCDCCCCCCCCCC2340D48AFF1FFC8BFF1FCC80FF1F00003E4000002440003C1C466F
:4003C000108DFF1F00C0794400002041F8B5002413E0A5002A199300094E1E44094F07F118011944304605F0AFFB2544AB003B445A6AF2609B6A33610134092CE9D9F8BD6E
:40040000448CFF1FCC80FF1F08B5042000F0D2FF592804D1094B93F84430012B08D15921042000F05FFF0022044B83F8442008BD4E21042000F056FF08BD00BFD48AFF1F3B
:4004400030B408480379084C9A00D518A9000D462144C96841622A4622441369436330BC704700BFD48AFF1F448CFF1F70B59AB0002431E0A3001A19950019490D44EE68E0
:40048000286904F06BFBCDE90401304604F066FBCDE902010095134B6622134906A805F0C5FA06A805F0AEFB80B2104B5880002307E01AAA1A4412F8501C0D4AD1540133D6
:4004C000DBB29AB29042F4D801330021084AD154FFF708FE0134E4B2092CCBD91AB070BD448CFF1F78DC00007CDC0000D48AFF1F048CFF1FF0B585B005460F4616461AB1BD
:400500004FF4967000F060FE2946384600F06CFF28B95EB14FF4967000F056FE06E08EB34FF4FA6000F050FE012030E016B1642000F04AFE00240AE004EB051080B200F075
:4005400039FF04AB234403F8100C0134A4B20F2CF2D910223946684605F05EF930B19EB14FF4FA6000F030FE012010E01EB14FF4967000F029FE4EB14FF4487000F024FEA3
:40058000002004E0012002E0012000E0002005B0F0BD00BF30B5B7B000F020FF00221146532000F07BFF002861D153238DF8C83000248DF8C940304D95F8E0308DF8CA30A9
:4005C0002E4B1A798DF8CB2093F844308DF8CC308DF8CD408DF8CE408DF8CF408DF8D0408DF8D1408DF8D2408DF8D3408DF8D4408DF8D5408DF8D6408DF8D740224632A93F
:400600002046FFF777FFE43595E803003290ADF8CC10090C8DF8CE10224632A90120FFF769FFC8221649684605F028F916E004F1200189B236AB234413F8D80C00F052FE07
:4006400010F0FF0F04D1C1B20E4805F0DBF903E0C1B20D4805F0D6F90134A4B2C72CE6D900221146472000F019FF10B902E0012000E0012037B030BDCC80FF1FD48AFF1FEA
:40068000448CFF1F94DC0000ACDC000010B5B2B0002000F08FFE204B83F84500472837D1002408E0204600F085FE32AB234403F8C80C0134A4B21F2CF4D99DF80220174B3A
:4006C00083F8E0209DF80310134A11719DF8041082F8441004AA92E80300C3F8E400A3F8E810090C83F8EA1000240AE004F1200080B200F05FFE32AB234403F8C80C0134B0
:40070000A4B2C72CF2D9C8226946054805F0B6F8012032B010BD00BFD48AFF1FCC80FF1F448CFF1F10B50446002000F043FE1D4B83F845001C4B1B780BB9472801D1412CC5
:4007400029D14FF47A7000F03FFDFFF723FFF0B1002000F02FFE134B83F8450041F2883000F032FD4FF47A7000F02EFDFFF712FF68B1002000F01EFE0A4B83F8450042F22B
:40078000107000F021FD0123074A137008E00023054A137004E0FFF779FF034600B10123184610BDD48AFF1F0C8DFF1F08B500F007FF62B60121002001F00CF8FFF706FE0C
:4007C00002F064FB02F0FEFB00F0B8FC00F0ECFC00F084FD072000F0F7FC0020FFF7A2FF0A4B1870FFF72CFE002307E00022084941F82320074941F823200133012BF5DD1B
:400800004FF47A7000F0E0FC08BD00BF0C8DFF1FFC8BFF1F108DFF1F08B5084B93F84630012B0AD10021084600F05CFDFFF7CEFD4120FFF777FFFFF703FE08BDD48AFF1F8E
:4008400070B590B040220021684605F08DF8664B1B88002B00F09481644B5C680A21204605F00AF9002800F08B8100230370051BEDB22A462146684605F0F2F96B1C1C4423
:400880005A4B5C601B689C4201D2402D03D9574B574A1A605A60564805F0B4F93E2814D90022514B83F848206AE1524B1B6813445B7813F0070F05D04B1C10A8014401F8CF
:4008C000402CD9B20134E4B201E000210C46464B234493F848202C2A01D0AC42E5D910AB1944002301F8403C684604F063FF662840F04681AC4280F043810134E4B20023DB
:4009000007E0591C10A8034403F8402C0134E4B2CBB2354A224492F848202C2A01D0AC42EFD910AA1344002203F8402C324805F069F86946314805F065F8684604F03AFF3A
:40094000782840F01D81AC4224D20134E4B2002307E0591C10A8034403F8402C0134E4B2CBB2214A224492F848202C2A01D0AC42EFD910AA1344002203F8402C204805F096
:4009800041F869461D4805F03DF8684604F012FFC6B200E00026AC4236D2631CDBB2002207E0501C10AC224402F8401C0133DBB2C2B20D49194491F848102C2901D0AB42C4
:4009C000EFD910AB1A44002302F8403C0D4805F019F86946094805F015F8684604F0E6FE04F0C0FB044610E0D48AFF1FCC80FF1F1C8BFF1F1482FF1FD0DC0000E0DC0000EA
:400A0000E4DC0000F0DC00000024FF2E03D101225C4B83F88820FE2E0DD15A4B012283F889201B791344DBB2574A13700A2B02D90022554B1A70FD2E03D10122514B83F8F1
:400A40008A20FA2E01D1FFF711FDF92E06D101224C4B83F8892009224B4B1A70F82E06D10122484B83F889200822474B1A70F72E06D10122434B83F889200722424B1A7079
:400A8000F62E06D101223F4B83F8892006223E4B1A70F52E06D101223A4B83F889200522394B1A70F42E06D10122364B83F889200422354B1A70F32E06D10122314B83F831
:400AC00089200322304B1A70F22E06D101222D4B83F8892002222C4B1A70F12E05D10123284A82F88930284A1370F02E06D10122244B83F889200022234B1A70EF2E01D1E1
:400B0000FFF782FCC12E03D101221E4B83F84620C22E0AD11B4B93F84630012B01D1FFF77BFE0022174B83F84620C32E03D1FFF7ADFDFFF785FCA6F16403DBB2092B0DD88D
:400B4000A6F1640303EB83039A00104B1A44D460FFF720FDFFF79AFDFFF772FCA6F16E03DBB2092B0CD86E3E06EB8606B300074A13441C61FFF70EFDFFF788FDFFF760FCFC
:400B800010B070BDD48AFF1F188DFF1F448CFF1F10B502210F4B93F8E00000F0A3FB0E4C0321207900F09EFB042194F8440000F099FB002409E0074B234404F1100193F870
:400BC000E40000F08FFB0134E4B2062CF3D9002010BD00BFCC80FF1FD48AFF1F08B5FFF7E5FDFFF74FFA284B1B880BB1FFF728FE254B93F88830012B0ED10022224B83F8B2
:400C00008820224B93F8E030012B03D001221F4B83F8E020FFF7BCFF1B4B93F88930012B17D119490A790132D2B20A710A2A02D90021154A1171012B03D1154B1A78124B17
:400C40001A710022104B83F88920FFF7F9FBFFF79FFF0D4B93F88A30012B0ED100220A4B83F88A20094B93F8E030022B05D00222064B83F8E020FFF78BFFFFF78DFAC820C0
:400C800000F0A2FAADE700BFD48AFF1FCC80FF1F188DFF1FFEE700BFF0B40022174611E050F82760F3B226F0FF0608E001EB420511F812406D78A5550132013BDBB2002BE9
:400CC000F4D101371A2FEBD9F0BC70470E4B1B78DBB203F007010D4A11701B090132137018220B4B1A7040F2011203F635231A804FF4827204331A80F02212331A704422C8
:400D0000A3F2E2231A707047CF0100496E5800400D51004008B50A46002104F025FE08BD08B504F0ABFD08BD38B500242F4B1C80502202331A704FF49C7202331A80182241
:400D400002331A7004222A492A48FFF7E9FF2622294B1A705222A3F580731A70274B1B78DBB2274A13704FF4E162264B1A8041F25122023B1A8019250CE0234B1B7803F04A
:400D8000010343EA440404F003044FF4F07002F03FFA013D0DB1032CEFD115B90320FFF779FF1A4A4FF48073138007231370002317490B704820023108701370053213707F
:400DC0000222144B1A7004220A331A70124A137843F003031370013A137843F001031370013A137843F08003137038BD804000402C04004800410040004300400F0100490D
:400E0000A14600402242004025420040044000400640004001400040A2430040012814D810B44000C0B2094B53F820101A18147C0A7822430A700130C0B253F82020184489
:400E4000017C13780B43137010BC70472CDD0000012816D810B44000C0B20A4B53F820101A18147C0A7822EA04020A700130C0B253F820201844017C137823EA01031370BA
:400E800010BC70472CDD0000012808D8044B03EB800252691844017F13780B43137070472CDD0000012809D8054B03EB800252691844017F137823EA01031370704700BF35
:400EC0002CDD000038B572B6384A137843F00403137000240BE0364863001A19510001440A46898C106AFFF715FF0134E4B2082CF1D900240CE02E48A20011194B000344BB
:400F0000B3F86020D96D986DFFF70AFF0134E4B2012CF0D927494FF09040FFF7BDFE0A24254B1C70254A137843F0020313701032137843F002031370214D2B7843F040035D
:400F40002B70A2F58632513A137843F01003137022461C491C48FFF7E3FE22461B491C48FFF7DEFE22461B491B48FFF7D9FE08221A491B48FFF7D4FE08221A491A48FFF705
:400F8000CFFE1A4A137843F008031370184C61232370FFF7C9FE81232370FFF797FE0E2229461448FFF7BCFE38BD00BFE84600402CDD00006C000048835800400350014081
:400FC000A0430040F80300480051004004040048C051004010040048F05100401C0400481251004024040048325100402243004000480040B043004008B504F0DFFB0368E8
:401000000C2B00D1FEE7FEE708B5094B1A681044084BC31AB3F5005F02DC054B186005E004F0CCFB0C2303604FF0FF32104608BDE081FF1F008EFF1F08B5104E104D16E0C4
:4010400029686B68AC68002204E051F8040B43F8040B0432A242F8D1E868002203E0002143F8041B04328242F9D11035013E002EE6D104F0A9FBFFF7B1FDFEE7010000004E
:4010800064E3000008B5104A104B1A60104A136843F40073136000230AE0032B03D80D4A52F8231000E00C490C4A42F8231001332F2BF2D90A4B1A780A4B1A70074A0A4B64
:4010C0001A60FFF7FFFE08BD0004FA050CED00E014ED00E000000000F90F00000080FF1FBC760040C080FF1F08ED00E0084A137843F060031370A2F5A652133A137843F026
:40110000080313701032137843F008031370704777580040054B1A7802F0FC021A701A7800F0030010431870704700BF5E58004008B50120FFF7EEFF08BD00BF08B5054B53
:401140001B7823B90122034B1A70FFF7F1FFFFF7CDFF08BD688BFF1F084A137843F060031370A2F5A652133A137843F0020313701032137843F00203137070477758004021
:40118000054B1A7802F0FC021A701A7800F0030010431870704700BF5A58004008B50120FFF7EEFF08BD00BF08B5054B1B7823B90122034B1A70FFF7F1FFFFF7CDFF08BDE2
:4011C000698BFF1F01BE704710B5044605E0084B186802F01DF8A4F50044B4F5004FF6D8034B586800FB04F002F012F810BD00BFE481FF1F08B5034B1B7A00FB03F002F06E
:4012000007F808BDE481FF1F70B504460E46074B1D681F2802D90020FFF7D4FF04F01F04103455F8240045F8246070BD08ED00E038B504460D46072902D90020FFF7C2FFC7
:401240001F2C02D90020FFF7BDFF04F01F0000F1604000F564406D01EDB2057038BD00BF134B1B78DBB20360124A127843EA02230360114A127843EA024303600F4A1278EA
:4012800043EA026303600E4B1B78DBB243600D4A127843EA022343600B4A127843EA024343600A4A127843EA02634360704700BF0301004904010049EC4600400201004971
:4012C0000101004900010049050100490601004908B502F003F802F00BF808BD08B5FFF7F7FF08BD30B583B00C468DF8070002F03FF8B4F5006F52D22509A4EB0514A4B261
:4013000002F00AF900284CD101230DF107022146402002F059F8044607282FD1234B1B7813F0020FFAD0214B1B7813F0020F06D01E4B1B789B0805D04FF0FF3403E04FF0F5
:40134000FF3400E00024E4B9194A537812782946402002F09DF8072816D1144B1B7813F0020FFAD0114B1B7813F0020F0FD00F4B1B789B0810D04FF0FF340DE0012809D1F1
:401380000AE04FF0FF3407E04FF0FF3404E04FF0FF3401E04FF0FF3402F0E4F802E0012400E00424204603B030BD00BF22470040D08DFF1F38B5044601F032FF054601F074
:4013C000C1FF04F1804000F500400478E4B201F0C7FF284601F028FF204638BD08B501F07DFFC0B208BD00BF38B504460D4601F0BFFF15F0800F48D102F08EF8002846D1DC
:4014000010222146402002F01BF807282FD1214B1B7813F0020FFAD01E4B1B7813F0020F06D01C4B1B789B0805D04FF0FF3403E04FF0FF3400E00024E4B9174A537812782C
:401440002946402002F024F8072816D1114B1B7813F0020FFAD00F4B1B7813F0020F0FD00C4B1B789B080DD04FF0FF340AE04FF0FF3407E04FF0FF3404E04FF0FF3401E004
:401480004FF0FF3402F06EF802E0012400E00424204638BD22470040D08DFF1F30B583B00D4614468DF8070001F062FF15F0800F4CD10F2C4CD802F02FF800284AD10123A1
:4014C0000DF107022146402001F07EFF07282FD1224B1B7813F0020FFAD0204B1B7813F0020F06D01D4B1B789B0805D04FF0FF3403E04FF0FF3400E00024E4B9184A5378B3
:4015000012782946402001F0C3FF072816D1134B1B7813F0020FFAD0104B1B7813F0020F0FD00E4B1B789B080DD04FF0FF340AE04FF0FF3407E04FF0FF3404E04FF0FF34F0
:4015400001E04FF0FF3402F00DF804E0012402E0012400E00424204603B030BD22470040D08DFF1F7222074B1A70202201331A700622623B1A70472210331A7000224F3346
:401580001A7070478A65004010B501F049FE04460A4A137843F0200313700132137843F010031370033A137843F01003137001F071FA204601F038FE10BD00BF9A650040F0
:4015C00008B5054B1B7823B9FFF7CCFF0122024B1A70FFF7D9FF08BD6A8BFF1FF8B501F01FFE0746404A137843F0010313701032137843F00103137001263C4B1E7002254D
:40160000943B1D7002F5E2521B32137803F07F0313700020FFF7EEFD354C237803F0F9032370344A137803F0DF0313702378334323703046FFF7DEFD2820FFF7DBFD2E4BD9
:401640001A7802F07F021A701A7802F0BF021A7023782B4323702846FFF7CCFD237843F0040323700024254B1C7001331C70384601F0DAFD07211720FFF7DAFD20491720E9
:40168000FFF7C2FD07211820FFF7D2FD1D491820FFF7BAFD07211520FFF7CAFD1A491520FFF7B2FD07212046FFF7C2FD17492046FFF7AAFD07213046FFF7BAFD14493046EA
:4016C000FFF7A2FD07212846FFF7B2FD11492846FFF79AFD07210C20FFF7AAFD0E490C20FFF792FDF8BD00BFA54300409D6000409443004012600040F8510040846000407D
:401700003D210000251F00003921000099200000C9200000FD2000004521000008B5214B18700023204A1370204A1370204A1370204A1370204A1370204A1370204A137039
:40174000204B4FF400021A604FF080721A604FF400121A6001221A6002221A6004221A6011B1012906D00BE0174A137803F0FE0313700AE0144A137843F00103137004E069
:40178000114A137843F00103137003220F4B1A708022203B1A70012001F03AFD04220C4B1A7008BD368DFF1FB58DFF1F428DFF1F458DFF1F448DFF1FB88DFF1FB48DFF1F15
:4017C000438DFF1F00E100E009600040286000401260004038B504460D46064B1B7823B9FFF7FCFE0122034B1A7029462046FFF795FF38BD6C8BFF1F00230A4A13700A4A2B
:4018000013700A4A13700A4A13700A4A13700A4A13700A4A13700322094B1A708022203B1A707047B58DFF1F428DFF1F458DFF1F448DFF1FB88DFF1FB48DFF1F438DFF1FD5
:4018400028600040014B1878704700BF458DFF1F064B1B7813F0FF0F05D0044B1878C0B200221A7070470020704700BF428DFF1F00EB40008300024A13445878704700BFC6
:40188000488DFF1F431EDBB2072B0BD8064B00011A18185C00F00F00537843EA0020023880B2704700207047FC5F0040431EDBB2072B3CD8F0B4074600EB4004A3001C4C2F
:4018C0002344DB889BB2C3F500739A4208D900EB400293002344DA8892B2C2F5007292B200EB4004A300124C2344DB7843EA1223104D04012E192B55D3B2737039B909E0F7
:40190000CE5C3D010C4C665501339BB200E000239A42F5D8420002449300054A134400225A705A79D2B20001044B1A54F0BC7047488DFF1FFC5F004078600040FE5F004097
:40194000431EDBB2072B0BD8420002449300054A134400225A705A79D2B20001024B1A54704700BF488DFF1FFE5F004070B5D9B1054614460E46C8B1082819D8FFF782FFE5
:40198000A04203D22846FFF77DFF0446002305E02901094A525CF25401339BB2A342F7D32846FFF7CDFF04E0002402E0002400E00024204670BD00BF7860004010B4FF240A
:4019C00000230EE0094AD25C02EB42029100084A11448A7AD2B2824201D11C4602230133DBB2012BEED9204610BC70471C8DFF1F488DFF1F10B5204C2079FFF7DFFF2378B7
:401A000013F0800F0ED06378DBB2212B2FD11B4B07221A80C0EBC000194A1044586000F0EFFA10BD144B5B78DBB2202B02D0222B10D01EE0114A07231380C0EBC0031049F3
:401A40000B4453600F4A135C43F00103135400F0FFFA10BD084B9B780B4A22F81030094A135C43F00203135400F088F910BD002010BD002010BD00BF00600040BC8DFF1FF4
:401A8000F481FF1F308DFF1F208DFF1F10B500241F4B1C701F4B1C705C700AE01E4B185DC0B2431EDBB2072B01D8FFF749FF0134E4B2012CF2D9194B1B7813F0FF0F1AD026
:401AC000154B1B7813F0FF0F17D0154B1B7813F0FF0F14D0114B1B78DBB2082B11D80E4B1B78DBB2082B0ED80D4B1B78DBB2082B0BD8002010BD012010BD012010BD012071
:401B000010BD012010BD012010BD012010BD00BF6D8BFF1F308DFF1F248DFF1F2C8DFF1F1C8DFF1F70B506460D460F4B1B780F4AD45CE4B204EB440293000D4A13441B8907
:401B40009BB28B4209D204EB44029300084A13441D89ADB20020FFF735FB2A4631462046FFF7A4FE70BD00BF6D8BFF1F2C8DFF1F488DFF1F08B5034B1B78034AD05CFFF7F6
:401B800077FE08BD6D8BFF1F248DFF1F08B5034B1B78034AD05CFFF76BFE08BD6D8BFF1F2C8DFF1F08B5084B1B78084AD35CDBB203EB43018A0006490A44128992B20146AE
:401BC0001846FFF7D3FE08BD6D8BFF1F248DFF1F488DFF1FC37803F0030390F9020000280FDA032B06D002F001030B48C15442F001020EE0C2F380030848C15442F00402F9
:401C000007E0032B05D0C2F340030548C15442F002021046704700BF2C8DFF1F1C8DFF1F248DFF1F1D4B19781D4A13889BB20B449BB2138000220FE01A494B681B78DBB233
:401C4000194883544B6801334B600132D2B20B889BB2013B9BB20B80124B1B889BB20BB1072AE9D90D4B1B78DBB2082B00D05AB10E490B7883F080030B700F210C4B197012
:401C800002210C4B197004E0022309490B7009490B70094B1A70014B1A707047438DFF1FB68DFF1FBC8DFF1F00600040378DFF1F3C8DFF1FB58DFF1FB98DFF1F0222074BBA
:401CC0001A708022064B1A700F22064B1A700023054A1370054A137001207047B58DFF1F378DFF1F3C8DFF1F438DFF1FB98DFF1F08B5FFF797FF08BD10B4194B197801F0FF
:401D00000F010239C9B2174A13889BB20B449BB21380002011E0144A5468144B1B5CDBB223705368013353600130C0B20139C9B213889BB2013B9BB213800B4B1B889BB200
:401D40000BB10029E7D10A4B19700A4A137883F0800313700B22084B1A7010BC704700BF29600040B68DFF1FBC8DFF1F00600040B98DFF1F378DFF1F3C8DFF1F0623064A6D
:401D80001370064A13708022054B1A700022054B1A700120704700BFB58DFF1F3C8DFF1F378DFF1FB98DFF1F064B9B6843B1054B9A6810709A6804490988518000229A604A
:401DC000704700BFBC8DFF1FB68DFF1F08B5134B1A78D2B21A701B78DBB213F0800F02D00F4A137008BD0220FFF7DEFF0D4B1B7803F06003202B05D0402B06D043B900F042
:401E000093FC06E001F0DEFB03E000F037FE00E0002010B90322024B1A7008BD286000403C8DFF1F0060004008B5094B1978094A13889BB20B449BB213800022064B1A7079
:401E40000120FFF7B1FF0322044B1A7008BD00BF438DFF1FB68DFF1FB58DFF1F3C8DFF1F08B50B4B1B78DBB2042B06D0062B07D0022B0BD1FFF7D8FF08BDFFF73DFF08BDB1
:401E80000320FFF791FF0322024B1A7008BD00BFB58DFF1F3C8DFF1F08B50022044B1A700120FFF781FF0322024B1A7008BD00BFB58DFF1F3C8DFF1F08B50B4B1B7813F0F3
:401EC000FF0F07D0084A137843F0800307490B70002313700022064B1A700120FFF764FF0322044B1A7008BDB88DFF1F08600040B58DFF1F3C8DFF1F08B5094B1B78DBB23C
:401F0000042B06D0062B07D0022B07D1FFF7F0FE08BDFFF7C1FF08BDFFF7CEFF08BD00BFB58DFF1F08B5284B1B78DBB213F0100F48D013F0800F0CD003F00F03012B16D1B4
:401F4000FFF744FF214B1B7813F0800F11D1012312E013F0400F03D0FFF7CEFF01230BE013F0200F07D0FFF77BFF012304E0002302E0002300E0002323B3134B1B7813F032
:401F8000800F1FD1124B1B78124A12781343124A13701278D2B2934214D10C4B1B78DBB2094A127812F0800F07D1084B1B78DBB2054A1370137803F00F03044A1278D2B2E1
:401FC0009342EAD108BD00BF286000403C8DFF1F378DFF1FB98DFF1F296000400022064B1A80064B9B682BB1044A916800230B7092685380704700BFB68DFF1FBC8DFF1FE2
:4020000008B50F4B1B889BB213B9FFF757FE15E002220C4B1A7000220B4B1A70FFF7DEFF0A4AD179937943EA0123054A128892B2934201D2024A1380FFF7F4FD012008BD37
:40204000BC8DFF1FB58DFF1F378DFF1F0060004008B504220B4B1A7080220B4B1A70FFF7BDFF0A4AD179937943EA0123084A128892B2934201D2064A13800B22054B1A7063
:40208000012008BDB58DFF1F378DFF1F00600040BC8DFF1F3C8DFF1F0122094B1A700F3B9B7C084B1B7B03F00303934204D0054AD37B83F08003D3730122024B5A73704750
:4020C0000B600040488DFF1F02220A4B1A700F3B93F82230084B1B7E03F00303012B04D0054AD37E83F08003D3760122024B5A76704700BF0B600040488DFF1F04220C4B83
:402100001A700F3B93F832300A4B93F8243003F00303012B06D0074A92F8273083F0800382F827300122034B83F82520704700BF0B600040488DFF1F704700BF08B5FFF748
:402140005BFB08BD08B500F0B3FC08BD70B588B0054603AC174E0FCE0FC43368237035B322232B7003236B7001A8FFF779F8002402231AE008AA224412F81C2C08A901EB66
:40218000121111F8141CE954581C00212954981C02F00F0208AE324412F8142C2A54DA1CA9540134E4B20433DBB2212BE2D908B070BD00BF98DD000010B401233EE01946C2
:4021C0001A010C242148845403EB4300820020480244527912F0FF0F13D003EB430082001B480244127912F0800F04D01801194A024494700AE01801164A02440820907051
:4022000004E01801134A0244802090704800084482000F480244D488E4B208010B4901448C71D088C0F30720C871D088C0B20871D288C2F307224A710133DBB2082BBED9EE
:40224000FF22054B1A7010BC704700BF70600040488DFF1FFC5F00400A600040074B1A78074B03EBC2035B681A7C824204D9C000103018444068704700207047368DFF1F83
:40228000ACDD0000F8B5404B1B7813F0FF0F79D03D4B18780138C0B2FFF7E0FF047AC2683A4B1878C0B200236AE01178884264D13749095CC9B25578A9425ED1917801F073
:4022C0007F01D67806F00306DFF8C8E04D000D44AF000EEB07054FF0000C85F803C092F802C085F804C092F803C00EF807C097882F8192F90250002D0DDA012E01D107271F
:4023000000E00D274E000E44B500224E35446F7101266E700CE0012E01D1052700E009274E000E44B5001B4E35446F7100266E70DFF868E00F010EEB07060125B57001FAA7
:4023400005F529448D00134929440D89C5F307250EF807500D89EDB27570CE88F6B20E4D3D44AE71CE88C6F30726EE71CE88F6B22E71C988C1F30721697108320133DBB27C
:40238000A34292D3F8BD00BF458DFF1F448DFF1FC88DFF1F488DFF1F70600040FC5F0040034B1A78034B03EBC2035868704700BF368DFF1FACDD000008B5084B1878013815
:4023C000C0B2FFF74BFF30B142681279023200EBC203586808BD002008BD00BF458DFF1F2DE9F047002310E0724D5900CA189600AC190022AA55A270E2702281A272627055
:4024000034462C4462710133DBB2082BECD940B90AE000226849CA546849CA540133DBB200E00023012BF4D9654B1B7813F0FF0F00F0BD80624B18780138C0B2FFF70EFF5A
:4024400080464368DB7913F0400F05D05D4A137843F00103137004E05A4A137803F0FE03137098F808704FF0000A01266FE0D8F80C50002467E0AB7803F07F039E425FD1F4
:40248000314606EB460083004A4803441B899BB2A888834206D206EB460E4FEA8E03454A134418812B784448C35CDBB26878834246D195F802C0DFF8FCE04B000B449800FB
:4024C0000EEB000383F804C0EB780EF80030EB7803F0030395F90200002813DA012B02D14FF0070901E04FF00D09DFF8C8E04B0003EB010C4FEA8C00704480F80590012116
:40250000417012E0012B02D14FF0050901E04FF00909DFF8A0E04B0003EB010C4FEA8C00704480F8059000214170AB790A2B01D0022B05D1524631462846FFF74BFB8246D7
:4025400008350134E4B2BC4295D30136F6B2082E8DD9D8F80C0000220CE0837803F07F0310F8084B03EB43039900124B19448C720132D2B2BA42F0D3FFF71EFF124B1860DA
:40258000002301210FE00B4D4A00501884002C44E380228992B213449BB203F0010213449BB20131C9B20829EDD9FFF705FEBDE8F08700BF488DFF1FC88DFF1F408DFF1F90
:4025C000458DFF1FB48DFF1F388DFF1F08B5154B1B7903F07F035A1ED2B2072A20D8590019448A0010490A44917841F0010191700021D170517841F002015170127912F08D
:40260000800F05D01B01094A1A448D23937004E01B01064A1A4489239370FFF7AFFB08BD002008BD00600040488DFF1FFC5F0040274B1B7903F07F035A1ED2B2072A44D81D
:4026400010B5590019448A0022490A44917801F0FE0191700021D1701F4C1801215C01F07F012154517801F0FD015170127912F0800F13D003EB43018A0016490A445278AE
:40268000D2B2012A04D1224602440C23937019E01B01114A1A440D23937013E003EB43018A000C490A445278D2B2012A05D11B01094A1A440823937004E01B01064A1A446B
:4026C00009239370FFF75AFB10BD0020704700BF00600040488DFF1FFC5F004010B50E4B1C79E4B20D4B18780138C0B2FFF7B6FD43681B799C4201D9022C0AD8084A135D81
:40270000DBB208490B55044B9B78DBB21355012010BD002010BD00BF00600040458DFF1FC88DFF1F408DFF1F10B59C4B1B78DBB200219B4A118013F0800F00F0AD80974A89
:402740005278D2B20A2A00F27481DFE812F06900720172017201720172010B007201920072019A008D4BDB78DBB2012B09D1FFF717FE42688A4B5A6012221A80FFF740FC60
:4027800010BD864BDB78DBB2022B13D1834B9878FFF764FD002800F04E814268804B5A605A68D1785A68927842EA01221A80FFF727FC10BD794BDB78DBB2032B05D02CE0E6
:4027C0000A7811440133DBB201E000237549734A9278D2B2934203D20A7812F0FF0FEFD16E4B9B7813F0FF0F0BD06C4B9B78DBB26D4A127C934204D16C4C2046FFF7A6FC84
:4028000021460B7813F0FF0F00F017810B78644A13805160FFF7F4FB10BD00F0D3FE10BD13F0030317D0022B40F009815C490B805A4B1B7903F07F0303EB43039A005C4B36
:402840001A449278D2B25B4B1A7000225A704B60FFF7D6FB10BD524902230B80564B1A78D2B2544B1A7000225A704B60FFF7C8FB10BD4B4B01221A80504A5A60FFF7C0FB71
:4028800010BD474A01231380444B1B794C490B445360FFF7B5FB10BD404A5278013A0A2A00F2CF80DFE812F04C00CD009800CD000B00CD00CD00CD001300CD003000374B87
:4028C0009B78DBB23F4A1370FFF758FA10BD334B9B7803F0FF041BB1601EC0B2FFF7BEFC04B110B9002C40F0AE80344B1B78DBB29C4206D0314B1C700120334B1870FFF7A4
:402900006FFDFFF73BFA10BDFFF7E8FE002800F09C80224A1379DBB21279D2B22B490A702B4AD25CD2B22649CB5CDBB29A4204D00122254B1A70FFF7A5FCFFF71FFA10BD17
:4029400003F00303012B17D04BB1022B7FD1134B9B7813F0FF0F7CD1FFF76AFE10BD0F4B9B78DBB2012B76D1134A137803F0FD031370FFF703FA10BD084B1B79DBB2012BAD
:402980006BD8064B98781B79DBB21249CA5C22EA0002CA54FFF7F2F910BD00BF00600040BC8DFF1F14DE00000CDF0000D48DFF1F488DFF1F708BFF1FB48DFF1F458DFF1F7A
:4029C000C88DFF1FB88DFF1F428DFF1F448DFF1F408DFF1F348DFF1F03F00303012B17D04BB1022B3BD1224B9B7813F0FF0F38D1FFF7ECFD10BD1E4B9B78DBB2012B32D19C
:402A00001C4A137843F002031370FFF7B7F910BD174B1B79DBB2012B27D8154B98781B79DBB21549CA5C22EA0002CA54FFF7A6F910BD002010BD002010BD002010BD00203F
:402A400010BD002010BD002010BD002010BD002010BD002010BD002010BD002010BD002010BD002010BD002010BD002010BD00BF00600040B48DFF1F348DFF1F044B1B78DB
:402A800013F0800F01D0024B5B780020704700BF00600040054A137843F0020313701032137843F002031370704700BFA2430040024B1878C0F38010704700BF8F450040FB
:402AC00010B50446054B1878FF2801D0FEF7C0F92046FEF7A3F9014B1C7010BD0E82FF1F10B59DF80840012C51D1013809282ED8DFE800F0052D2D052D2D0F192D230F2B6F
:402B000003D92548007840B222E02448007840B21EE00F2B03D92248007840B218E02148007840B214E00F2B03D91F48007840B20EE01E48007840B20AE00F2B03D91C485A
:402B4000007840B204E01B48007840B200E0002001EB401101FB02F1C90B8AB20D2B0BD8C3F10E0289B211418AB2611E124800EB810101338B7005E0631E0F4901EB8303B1
:402B80000F219970013C0C4B23F8242010BD0020FEF718FB10BD00BF180100491C010049190100491D0100491A0100491E0100491B0100491F010049748BFF1FF8B5074625
:402BC00000F02EFB06460D4D2B7843F003032B700B4C237843F0030323700A4B1F700320FEF708FB2B7803F0FC032B70237803F0FC032370304600F017FBF8BDF8460040E7
:402C0000F9460040925800400022314B1A7101285DD170B574222F4B1A70002402331C70092201331A707F232B4A13700132147001321370294B1C7001331C7001331C7057
:402C400001250A331D70502203F527631A700A2201331A702C2201331A7001331C70442203331A70482201331A7001331D70022602331E70122201331A70282201331A703C
:402C8000EB2201331A705220FFF798FF4722144B1A7001331C70052205331A7001331E7001331C7001331C70204600F09BF90D4A0D4B1A602946032000F0B8F929460F2029
:402CC00000F038FA09491D20FEF79EFA70BD7047748BFF1F004E0040044E0040084E00409458004033330300CC8DFF1FC12F0000F0B583B0274D01272F70274E0024747152
:402D0000102000F081F9102000F002FA07211D20FEF78EFA0422214B1A7001331C7007331C701F4A137843F0180313701D4B1C7003F2F5231C7001331C700A22A3F209334A
:402D40001A7001331C7002331C705B2205331A705E2201331A7004331C701423124A137000974FF4004248F6F0510220FFF7B8FE2B78013B06EB83039A780C4B1A702B789D
:402D8000013B36F823200A4B1A802878FFF73CFF03B0F0BD0F82FF1F748BFF1F96580040075B004093580040014E00400E4E00400C4E004070B500F033FA06462A4B1B7824
:402DC0002A4B1A7842F001021A701A7842F010021A7010331A7842F001021A701A7842F010021A70224D2B7843F002032B70214C237843F0020323701F4A137843F00303D4
:402E000013700320FEF7F6F92B7803F0FD032B70237803F0FD032370184A137843F0060313707A22164B1A70164A137843F0010313701032137843F0010313700F3A137883
:402E400043F0010313701032137843F0010313704FF000530C4A1360A2F5C0721360304600F0E2F970BD00BF0F82FF1FAA430040F8460040F946004091580040775800403C
:402E800082580040A143004080E200E008B5084B9B794BB9064BDB7913F0FF0F01D1FFF727FF0122024B9A71FFF784FF08BD00BF748BFF1F024A137843F0010313707047E9
:402EC000004E0040024A137803F0FE0313707047004E0040094B1B7913F0FF0F03D0074B5B79DBB203E0064B1B7803F00103012B01D00028EED01846704700BF748BFF1FA0
:402F0000014E0040154B1B7803F00303012B07D8134B1888023B1B889BB243EA004013E0022B0AD10E4B1888023B1B7843EA00430C4A107843EA002006E00B4B188883B203
:402F4000074A108843EA0040084B1B7913F0FF0F02D00022054B5A71704700BF144E0040124E0040114E0040104E0040748BFF1F10B5074B9B68C01A02F0FEF90446054B6B
:402F8000186802F0F9F90146204602F0FDFA10BD748BFF1FCC8DFF1F10B5084A137843F004031370FFF786FF0020FFF793FFFFF7A9FF0446FFF786FF204610BD014E00400F
:402FC000704700BF10B5002404E02046FDF76AFF0134E4B2012CF8D9FF22014B1A7010BD1082FF1F10B50446FFF7ECFF2046FDF74BFF014B1C7010BD1082FF1F014B1888B9
:4030000080B2704780400040034B1A7800F0F80010431870704700BF82400040024B187800F00700704700BF8240004070B505460E46FFF7F3FF0446FFF7E0FFA84256D065
:403040002B4B1B7803F0010294B900B185B938B9284B1D80284A137803F0BF03137070BD254A137843F040031370224B1D8070BD22B3002321490B7001240F310C70043195
:403080000B700C390B7803F07F030B701A4B1B7813F0080F00D08DB9194B18800721013B1970164B1B7813F0010FFAD110490B7803F0FE030B700021104B19700C4B1B78C0
:4030C00013F0010F0DD00E4B1D800EB1032200E001220A4B1A70094B1B7813F0010FFAD170BD044B1D8002490B7813430B7070BDA2430040804000408240004001400040D2
:4031000002400040014B188880B2704700410040034B1A7800F0F80010431870704700BF02410040024B187800F00700704700BF0241004070B505460E46FFF7F3FF044658
:40314000FFF7E0FFA84256D02B4B1B7803F0010294B900B185B938B9284B1D80284A137803F0BF03137070BD254A137843F040031370224B1D8070BD22B3002321490B70C5
:40318000012413310C7004390B7008390B7803F07F030B701A4B1B7813F0080F00D08DB9194B18800721013B1970164B1B7813F0010FFAD110490B7803F0FE030B7000216F
:4031C000104B19700C4B1B7813F0010F0DD00E4B1D800EB1032200E001220A4B1A70094B1B7813F0010FFAD170BD044B1D8002490B7813430B7070BDA14300400041004006
:40320000024100400140004002400040000000000230800803D000BF01380046FCD17047EFF3108072B6704780F31088704700BF10B500F09DF800F06FF910BB012000F069
:403240004DF9072818D102210F4800F0A3F802280AD102E00120FDF7CDFF0C4B1B7813F0020FF7D0002409E0084B1B7813F0020FE9D04FF0FF3401E04FF0FF3400F072F97E
:4032800000E00424204610BDD08DFF1F2247004010B500F06DF800F03FF9D0B900F07EF90446072812D102E00120FDF7A3FF0A4B1B7813F0020FF7D0074B1B7813F0020FCC
:4032C00004D0054B1B789B0800D1002400F04AF900E00424204610BD2247004008B5FFF7D7FF034610B9FFF7A3FF0346184608BD08B5FFF795FF0F4A137843F008031370DD
:403300001032137843F008031370C8220A4B1A700A4A137843F0100313701032137843F010031370064B1B7813F0200FFAD0FFF77BFF08BDA043004001470040AC43004009
:4033400000470040054A137843F001031370034B1B7813F0020FFAD0704700BF02470040024A137803F0FE03137070470247004008B5FFF755FF064A137843F00803137043
:403380001032137843F008031370FFF74DFF08BDA043004070B506460D4600240CE00120FDF728FF064B1B7813F0010FF7D0054B1B7833550134E4B2AC42F3D3204670BD0A
:4033C000224700402047004030B43E2801D81F2B03D93F2827D90F2B27D8174C247814F0020F24D0154CB6252570D4252570012525700234247814F0020F1AD10F4C2070B5
:40340000C1F300202070C9B22170591EC9B22170002104E0545C094804700131C9B29942F8D3072006E0012004E0012002E0042000E0092030BC7047224700402047004097
:40344000114B1B7813F0020F19D010B40F4BB6241C70D5241C7002241C7002331B7813F0020F0ED1094B1870002304E0CC5C0748047001339BB29342F8D3072002E00420CE
:403480007047092010BC7047224700402047004030B4104C247814F0020F15D00E4CB6252570D8252570052525700234247814F0020F0BD1084C2070080A2070C9B2217013
:4034C00022702370072002E0042000E0092030BC704700BF22470040204700400C4B1B7813F0020F0FD00B4BB6221A70E1221A700E221A7002331B7813F0020F05D1054BE1
:40350000187007207047042070470920704700BF224700402047004010B5FFF781FE0F4B1B78A3B901220D4B1A700D4B1B6813F0010F0ED00A4A136823F00103136000BFEF
:4035400000BF00BF0122054B5A60002402E0042400E00024FFF768FE204610BD808BFF1F0400084008B5FFF75BFE0A4B00221A705B68012B0AD1084A136843F0010313601C
:4035800000BF00BF00BF0022024B5A60FFF74CFE08BD00BF808BFF1F04000840074B1B7813F0020F08D0064BB6221A70E0221A700D221A7007207047042070472247004041
:4035C0002047004008B5144B1B7803F00303012B02D0022B04D00FE00F4B1B79DBB20CE00D4B1B7903F07F0303EB43039A000B4B1A44937ADBB200E00023022B07D8084A49
:403600001268D35C022B04D1FEF7F4F908BD002008BD002008BD00BF00600040488DFF1F388DFF1F2DE9F04F8DB006460F4614461D4600F0EDF9DFF81093CDE9000199F9B0
:403640000080B8F1FF3F46D022462B462046294601F072FD834600283DD132463B463046394601F069FD8246002874D1304639460022002301F02EFD002833D00022002380
:403680002046294601F026FD8346B8B1A94A012300200021CDF828A0CDE90467CDE90645CDE9080103920293B8F1000F6CD0A24B0022104619460DB0BDE8F08F2046294691
:4036C00000F0D0FF38B1002200232046294601F00BFD00286AD1DDE90023104619460DB0BDE8F08FDDE9000100F0BCFF804600287DD0DDE900014FF0000A4FF0000B52468E
:403700005B4601F0E7FC0028E5D03046394600F0A9FF0028DFD02046294600F0A3FF0028D9D099F90030834804210022022BCDE90467CDE90645CDE908AB039002910A924D
:4037400004D002A800F094FF002847D102F036F82223036042E0002200232046294601F0B9FC0028B7D0744B724800220121B8F1020FCDF828B0CDE90467CDE90645CDE9C3
:40378000082303900291A8D002A800F071FF00287ED00A9B43B302F011F8DDE908230A990160104619460DB0BDE8F08F614999F900300122CDF828B0CDE90467CDE9064551
:4037C00003910292002B68D05C490020022BCDE9080166D101F0F2FF212303600A9B1BB101F0ECFF0A9B0360DDE9082375E73046394600F037FF00283FF47BAF20462946B6
:4038000000F030FF00283FF474AFDDE900231046194601F091FC00286FD1464B99F90080039303230A90CDE90467CDE906450293B8F1000F3BD1DFF814B14FF0604A00224C
:40384000002330463946CDE908AB01F04DFC00283FF477AF00223A4B2046294601F0D2F904460D4600F00CFF02460B462046294601F030FC00283DD1324B4FF06042CDE967
:40388000082399F90080B8F1020F7FF45AAF5DE701F094FF212303607BE700230024CDE9083402A800F0E4FE002897D192E7DFF8A0B04FF0000A0022002330463946CDE9A6
:4038C00008AB01F011FC0028DDD000221C4B2046294601F097F904460D4600F0D1FE02460B462046294601F0F5FB18B9134B0022CDE9082399F90080C5E70E4A99F900904E
:403900000123CDF82880CDE90467CDE9064503920293B9F1000FC0D0002200231046194601F09AFAB9F1020FCDE908013FF452AFB7E700BF20DF00000000F03F0000F0FFBA
:403940000000E03FFFFFEFC71182FF1FFFFFEF470000F07F2DE9F04F8BB004460D4600F0B9FD284B064693F900A00F46BAF1FF3F12D022462B462046294601F0DDFB834602
:4039800050B94FF000084FF000092046294642464B4601F0A9FB20B9304639460BB0BDE8F08F194A0123CDF820B0CDE90445CDE9024501920093BAF1000F15D042464B4649
:4039C0004046494601F048FABAF1020FCDE906010CD101F0F3FE21230360089B63B9DDE906010BB0BDE8F08FCDE90689684600F03FFE0028F1D1ECE701F0E0FE089B036083
:403A0000EDE700BF1182FF1F24DF0000000000002DE9F04F23F0004858EA020993B03CD0714C21F00046A64283460D460CDD06F1404606F5801656EA0B0038D183466B4913
:403A4000584613B0BDE8F08F9A4696462BD0A045EDDC654CA04578D0002D0F468146CDE9002376DB0024BEF1000F27D15E4B984500F08B805D4B984552D0BAF1804F00F09F
:403A8000C9835B4B9A4519D1002D17DB4846394613B0BDE8F04F00F01DBDCB465846534913B0BDE8F08F0028C1D1B045D1DD514813B0BDE8F04F00F0DDBD00244846394624
:403AC00000F0CCFDBBF1000F1CD0ED0F013D54EA050370D0484B984540F3948003F10473984540F30D84454B9E4270DDBAF1000F70DD3BA3D3E900231046194601F082F842
:403B000083469DE726B1394B25F040429A42DCD1BAF1000FC0F2B783002D08DB83468FE7BAF1000FC0F25E84CB46394688E706F1404606F5801656EA040300F08384012C02
:403B4000ECD101F1004183467AE7BEF1000F83D06DE72B4B98452CDCA3F15473984581DD4FEA2853A3F2FF33142B40F35384C3F134032EFA03F202FA03F39E457FF472AFA0
:403B800002F00102C2F102046DE706F1404303F5801353EA0B0300F03A83184B9E4240F36783BAF1000F15DBDDE900349B46214646E7022457E74A4648463B46394600F01B
:403BC0006DFE02460B4601F047F9834638E7BAF1000F8EDB4FF0000B594631E7AFF300809C7500883CE4377E0000F07F0000F03F0000E03F90DC00000000E041FFFFEF3F7E
:403C0000FFFF3F43B6F5801F4FF0000205DAD04B00F0F8FF0E466FF03402DFF844E33315C6F31306A3F2FF3346F07F57764503EB020A47F4401740F3C983C64B00229E42EB
:403C400040F304840023CDE90823CDE90C23C24B0022CDE906230AF1010AA7F5801700263946DDE90623CDE90A0100F017FEDDE9062380468946DDE90A0100F011FE024663
:403C80000B460020B44901F0E7F80A4601461346CDE90E1202464946404600F0B3FF8C4683467B1043F0005303F5002399190020CDE904BC06460F464FF0000B61465846C2
:403CC00032463B46CDE910BCCDE9020100F09AFF02460B464046494600F0E0FDDDE90623804689463046394600F0D8FD02460B46DDE90A0100F0D2FDDDE9022300F082FFC9
:403D000002460B464046494600F0C8FDDDE90E2300F078FFDDE90478CDE906013A4643463846414600F06EFF77A3D3E9002306460F4600F067FF76A3D3E9002300F0B0FDD3
:403D400032463B4600F05EFF73A3D3E9002300F0A7FD32463B4600F055FF71A3D3E9002300F09EFD32463B4600F04CFF6EA3D3E9002300F095FD32463B4600F043FF6CA3D9
:403D8000D3E9002300F08CFD3246804689463B463046394600F036FF02460B464046494600F030FFDDE9022306460F46DDE9040100F076FDDDE9062300F024FF32463B4681
:403DC00000F06EFDDDE902678046894632463B463046394600F016FF0022604BCDE90A0100F05EFD42464B4600F05AFDDDE910BC0F46DDE902015A463B46CDE90EBC5E4683
:403E000000F000FF0022CDE90201544B3046394600F044FDDDE90A2300F040FD02460B464046494600F03AFDDDE9042300F0EAFE324680468946DDE906013B4600F0E2FE0E
:403E400002460B464046494600F02AFD8046894602460B46DDE9020100F022FDDDE90EBC35A3D3E900235846CDE906BC5E460F4600F0C8FEDDE90223CDE9040130463946D0
:403E800000F00CFD02460B464046494600F006FD2BA3D3E9002300F0B5FE2BA3D3E90023804689463046394600F0ACFE02460B464046494600F0F4FCDDE90C2300F0F0FCE8
:403EC00080465046894600F037FE06460F46DDE9040142464B4600F0E3FCDDE9082300F0DFFC32463B4600F0DBFCDDE906BC324658463B46DA468B4600F0D0FCDDE90823E5
:403F000030E000BFAFF30080EF4E454A287ECA3F65DBC9934A86CD3F01411DA96074D13F4D268F515555D53FFFAB6FDBB66DDB3F033333333333E33F000000E009C7EE3F6E
:403F4000FD033ADC09C7EE3FF5015B14E02F3EBE0000404379B60B000000F03F000008408E98030000F09AFCDDE9042300F096FC02460B464046494600F090FC80468946AD
:403F8000DDE90012013C54EA050314BFD64CD74C0023CDE904340B461446CDE9023400230293DDE9024508462B461146224600F075FC52465B4600F025FEDDE900230646C1
:403FC0000F464046494600F01DFE02460B463046394600F065FC06460F4622462B4650465946CDE9006700F00DFE0B460246804689463046394600F053FCBD4B0646994215
:404000000D460C4640F30E8101F13F4303F5E003034340F0F081A0A3D3E90023DDE9000100F03EFC424682468B464B463046294600F034FC02460B465046594601F072F8F0
:40404000002840F0D8812F463B154FF48012A3F2FE3342FA03F32344C3F30A52A54EA2F2FF321641C3F3130B0020C2F1140523EA06014BF4801B02460B46002C4BFA05FBBD
:4040800040464946B8BFCBF1000B00F007FC02460B4680468946DDE9000100F001FC4FEA0B5A00247EA3D3E9002320460D4600F0A9FD424606460F464B462046294600F048
:4040C000EDFB02460B46DDE9000100F0E7FB76A3D3E9002300F096FD75A3D3E90023804689462046294600F08DFD02460B464046494600F0D5FB8046894602460B4630463E
:40410000394600F0CDFB32463B4604460D4600F0C5FB02460B464046494600F0BFFB2246804689462B462046294600F06BFD62A3D3E9002306460F4600F064FD60A3D3E97A
:40414000002300F0ABFB32463B4600F05BFD5EA3D3E9002300F0A4FB32463B4600F052FD5BA3D3E9002300F099FB32463B4600F049FD59A3D3E9002300F092FB32463B46BD
:4041800000F040FD02460B462046294600F086FB06460F4602460B462046294600F032FD0022CDE900014FF080433046394600F075FB02460B46DDE9000100F04DFE424672
:4041C00006460F464B462046294600F01BFD42464B4600F065FB02460B463046394600F05DFB22462B4600F059FB02460B4600203D4900F053FB8A44BAF5801FC0F2378151
:404200005146DDE9042300F0FDFC834618E4F346354915E44A4648463B46394600F0F2FC83460DE4344B21F000479F4240F30181324B0B4403430CD142464B4600F02EFB58
:4042400002460B46DDE9000100F058FF00283FF4FBAE23A3D3E90023DDE9040100F0D2FC1FA3D3E9002300F0CDFC8346FFF7E8BBBAF1000FBFF6AEACDDE900349B4604F110
:404280000041FFF7DDBB02460B460020164900F0E3FD41E4AFF30080FE822B654715973C00000000432EE63FEF39FAFE422EE63F396CA80C615C20BED0A4BE726937663E9A
:4042C000F16BD2C541BDBB3E2CDE25AF6A56113F93BDBE166CC1663F3E5555555555C53F59F3F8C21F6EA5010000F03F0000F0BFFFFF8F40FFFF0F00FFCB904000346F3F98
:404300006F4B9E427FF763AC6E4B9E423FF7EEAB00226C4B00F0C2FA5BA3D3E9002306460F4600F06FFC5AA3D3E90023804689463046394600F066FC002282468B46624B78
:404340003046394600F05EFC02460B4652A1D1E9000100F0A3FA32463B4600F053FC02460B460020594900F099FA3246CDE902013B463046394600F045FC02460B46DDE9DD
:40438000020100F03FFC46A3D3E9002300F03AFC02460B465046594600F080FA02460B4606460F464046494600F07AFA42464B46002082468B4600F071FA02460B463046BA
:4043C000394600F06BFA80468946D9E500220023CDE90823CDE90C233A4B00220026CDE906233DE44A463B460020364900F034FD8346FFF725BB2CA3D3E90023DDE90401D5
:4044000000F000FC28A3D3E9002300F0FBFB8346FFF716BBBEF1000F7FF44FABC3F1140348FA03F202FA03F3984524D07446FFF721BB264B9F423FF707AEDDE902349A46DB
:404440009B462EE602460B46FFF7B9BB204B4FF48026CDE9062316A3D3E90023CDE9082315A3D3E90023CDE90C23FFF7F9BB5A4600F096F9C5E602F00102C2F10204FFF704
:40448000F9BA00BFAFF30080000000604715F73F44DF5DF80BAE543E555555555555D53FFE822B654715F73F9C7500883CE4377E0000004003B8E23F06D0CF43EBFD4C3E1B
:4044C000FEFFEF3F0000F03F0000D03F0000E03F0000F83F2DE9F0415F4E0C46B6460E407645054600F0988000290B46024674DD5FEA215E7FD0AEF2FF3EC3F313031EF07E
:40450000010F43F4801363D100273E4603EBD2710B444FEA6E0E520016204FF4001174189C424FEAD2754FEA420202DC1B1B66180F44013805EB43034FEA5101EFD18446E1
:4045400020244FF0004109E020D003EBD275013C4FEA51012B444FEA420220D09E4201EB0C05F1DA002D05EB010C09DBB0469542A3EB060300D9013B4646521B0844E4E786
:40458000BCF1000FF2DB06F10108F0E7954217D8002D05EB010C49DB98460023ECE7134310D140087B1003F17F5303F50013FA0703EB0E57394648BF40F00040BDE8F08178
:4045C0003346C2E7411C35D000F001031844E8E75B0003EBD273520096E721F000460643ECD079BB8E46D30AAEF1150E5205002BF9D0DD0221D4002100E001465B00DC0218
:4046000001F10100F9D5C0F1200422FA04F42343C1EB0E0E82406EE702460B4600F0F2FA2A46234600F03CF9BDE8F081BCF1000FA9DAB1E701372046B4E720244FF0FF313F
:404640000020E2E702460B4600F028F902460B4600F002FCB2E700BF0000F07F21F00041704700BF41F0004101F58010C00F70470020704700200149704700BF0000F87FE5
:40468000F0B5C1F30A5EAEF2FF36132E83B002460B460C464FEAD17507462EDC002E49DB3D49314103EA010010432BD049080B4053EA02070CD04FF48023132E24EA0101B4
:4046C00043FA06F444EA01040CBF4FF000470027324B214603EBC505D5E90045384622462B4600F0DDF8CDE90001DDE9000122462B4600F0D3F803B0F0BD332E06DDB6F5BC
:40470000806F45D01046194603B0F0BDAEF2134E4FF0FF3121FA0EF10842F3D049080842D6D04FF0804320EA010143FA0EFE4EEA0107CDE721F0004101431946E4D0C3F3DE
:40474000130343EA000CCCF1000343EA0C0C134B640C4FEA1C3C0CF4002C03EBC5036404D3E900674CEA040132463B4600F098F8CDE90001DDE9000132463B4600F08EF878
:40478000024621F0004141EAC57310461946BBE700F086F8B8E700BFFFFF0F0030DF0000F8B5C1F30A5604460D460B46174606BB21F00043034325D000222F4B00F022FAB9
:4047C0002E4A044697420D460B462ADBC1F30A56363E40F2FE723E44964228DC002E12DD23F0FF4323F4E00343EA065520462946F8BD40F2FF729642EBD102460B4600F0AF
:404800004FF8F8BDF8BD16F1350F1DDA4CF250339F420CDC14A1D1E9000122462B4600F031F811A3D3E9002300F0ECF9F8BD22460FA1D1E900012B4600F024F80CA3D3E9C1
:40484000002300F0DFF9F8BD23F0FF4323F4E003363643EA0655204629460022084B00F0D1F9F8BDAFF3008059F3F8C21F6EA5019C7500883CE4377E00005043B03CFFFF56
:404880000000903C03F0004321F0004242EA0301704700BF81F0004102E000BF83F0004330B54FEA41044FEA430594EA050F08BF90EA020F1FBF54EA000C55EA020C7FEA4E
:4048C000645C7FEA655C00F0E2804FEA5454D4EB5555B8BF6D420CDD2C4480EA020281EA030382EA000083EA010180EA020281EA0303362D88BF30BD11F0004F4FEA0131C8
:404900004FF4801C4CEA113102D0404261EB410113F0004F4FEA03334CEA133302D0524263EB430394EA050F00F0A780A4F10104D5F1200E0DDB02FA0EFC22FA05F2801837
:4049400041F1000103FA0EF2801843FA05F359410EE0A5F120050EF1200E012A03FA0EFC28BF4CF0020C43FA05F3C01851EBE37101F0004507D54FF0000EDCF1000C7EEB29
:4049800000006EEB0101B1F5801F1BD3B1F5001F0CD349085FEA30004FEA3C0C04F101044FEA445212F5800F80F09A80BCF1004F08BF5FEA500C50F1000041EB045141EA3C
:4049C000050130BD5FEA4C0C404141EB010111F4801FA4F10104E9D191F0000F04BF01460020B1FA81F308BF2033A3F10B03B3F120020CDA0C3208DD02F1140CC2F10C0244
:404A000001FA0CF021FA02F10CE002F11402D8BFC2F1200C01FA02F120FA0CFCDCBF41EA0C019040E41AA2BF01EB0451294330BD6FEA04041F3C1CDA0C340EDC04F1140471
:404A4000C4F1200220FA04F001FA02F340EA030021FA04F345EA030130BDC4F10C04C4F1200220FA02F001FA04F340EA0300294630BD21FA04F0294630BD94F0000F83F46A
:404A8000801306BF81F480110134013D4EE77FEA645C18BF7FEA655C29D094EA050F08BF90EA020F05D054EA000C04BF1946104630BD91EA030F1EBF0021002030BD5FEA84
:404AC000545C05D14000494128BF41F0004130BD14F580043CBF01F5801130BD01F0004545F0FE4141F470014FF0000030BD7FEA645C1ABF194610467FEA655C1CBF0B469B
:404B0000024650EA013406BF52EA033591EA030F41F4002130BD00BF90F0000F04BF0021704730B54FF4806404F132044FF000054FF0000150E700BF90F0000F04BF0021A8
:404B4000704730B54FF4806404F1320410F0004548BF40424FF000013EE700BF42004FEAE2014FEA31014FEA02701FBF12F07F4393F07F4F81F06051704792F0000F14BFB1
:404B800093F07F4F704730B54FF4607401F0004521F0004120E700BF50EA010208BF704730B54FF000050AE050EA010208BF704730B511F0004502D5404261EB41014FF4C5
:404BC000806404F132045FEA915C3FF4DCAE4FF003025FEADC0C18BF03325FEADC0C18BF033202EBDC02C2F1200300FA03FC20FA02F001FA03FE40EA0E0021FA02F11444B5
:404C0000C1E600BF70B54FF0FF0C4CF4E06C1CEA11541DBF1CEA135594EA0C0F95EA0C0F00F0DEF82C4481EA030621EA4C5123EA4C5350EA013518BF52EA033541F48011AC
:404C400043F4801338D0A0FB02CE4FF00005E1FB02E506F00042E0FB03E54FF00006E1FB03569CF0000F18BF4EF0010EA4F1FF04B6F5007F64F5407404D25FEA4E0E6D41C4
:404C800046EB060642EAC62141EA55514FEAC52040EA5E504FEACE2EB4F1FD0C88BFBCF5E06F1ED8BEF1004F08BF5FEA500E50F1000041EB045170BD06F0004646EA0101F4
:404CC00040EA020081EA0301B4EB5C04C2BFD4EB0C0541EA045170BD41F480114FF0000E013C00F3AB8014F1360FDEBF002001F0004170BDC4F10004203C35DA0C341BDCED
:404D000004F11404C4F1200500FA05F320FA04F001FA05F240EA020001F0004221F0004110EBD37021FA04F642EB06015EEA430E08BF20EAD37070BDC4F10C04C4F12005E9
:404D400000FA04F320FA05F001FA04F240EA020001F0004110EBD37041F100015EEA430E08BF20EAD37070BDC4F1200500FA05F24EEA020E20FA04F301FA05F243EA020351
:404D800021FA04F001F0004121FA04F220EA020000EBD3705EEA430E08BF20EAD37070BD94F0000F0FD101F00046400041EB010111F4801F08BF013CF7D041EA060195F04F
:404DC000000F18BF704703F00046520043EB030313F4801F08BF013DF7D043EA0603704794EA0C0F0CEA135518BF95EA0C0F0CD050EA410618BF52EA4306D1D181EA0301C6
:404E000001F000414FF0000070BD50EA410606BF1046194652EA430619D094EA0C0F02D150EA013613D195EA0C0F05D152EA03361CBF104619460AD181EA030101F00041B9
:404E400041F0FE4141F470014FF0000070BD41F0FE4141F4780170BD70B54FF0FF0C4CF4E06C1CEA11541DBF1CEA135594EA0C0F95EA0C0F00F0A7F8A4EB050481EA030EDF
:404E800052EA03354FEA013100F088804FEA03334FF0805545EA131343EA12634FEA022245EA111545EA10654FEA00260EF000419D4208BF964244F1FD0404F5407402D278
:404EC0005B084FEA3202B61A65EB03055B084FEA32024FF480104FF4002CB6EB020E75EB030E22BFB61A754640EA0C005B084FEA3202B6EB020E75EB030E22BFB61A754686
:404F000040EA5C005B084FEA3202B6EB020E75EB030E22BFB61A754640EA9C005B084FEA3202B6EB020E75EB030E22BFB61A754640EADC0055EA060E18D04FEA051545EAA6
:404F400016754FEA06164FEAC30343EA52734FEAC2025FEA1C1CC0D111F4801F0BD141EA00014FF000004FF0004CB6E711F4801F04BF01430020B4F1FD0C88BFBCF5E06F7E
:404F80003FF6AFAEB5EB030C04BFB6EB020C5FEA500C50F1000041EB045170BD0EF0004E4EEA113114EB5C04C2BFD4EB0C0541EA045170BD41F480114FF0000E013C90E6C1
:404FC00045EA060E8DE60CEA135594EA0C0F08BF95EA0C0F3FF43BAF94EA0C0F0AD150EA01347FF434AF95EA0C0F7FF425AF104619462CE795EA0C0F06D152EA03353FF48C
:40500000FDAE1046194622E750EA410618BF52EA43067FF4C5AE50EA41047FF40DAF52EA43057FF4EBAE12E74FF0FF3C06E000BF4FF0010C02E000BF4FF0010C4DF804CD9F
:405040004FEA410C7FEA6C5C4FEA430C18BF7FEA6C5C1BD001B050EA410C0CBF52EA430C91EA030F02BF90EA020F0020704710F1000F91EA030F58BF994208BF90422CBFAD
:40508000D8176FEAE37040F0010070474FEA410C7FEA6C5C02D150EA013C07D14FEA430C7FEA6C5CD6D152EA033CD3D05DF8040B704700BF8446104662468C46194663469A
:4050C00000E000BF01B5FFF7B7FF002848BF10F1000F01BD4DF808EDFFF7F4FF0CBF012000205DF808FB00BF4DF808EDFFF7EAFF34BF012000205DF808FB00BF4DF808EDCE
:40510000FFF7E0FF94BF012000205DF808FB00BF4DF808EDFFF7CEFF94BF012000205DF808FB00BF4DF808EDFFF7C4FF34BF012000205DF808FB00BF4FEA410C7FEA6C5C52
:4051400002D150EA013C0AD14FEA430C7FEA6C5C02D152EA033C02D14FF0000070474FF0010070474FEA4102B2F1E04324BFB3F5001CDCF1FE5C0DD901F0004C4FEAC00215
:405180004CEA5070B2F1004F40EB830008BF20F00100704711F0804F21D113F13872BCBF01F00040704741F480114FEA5252C2F11802C2F1200C10FA0CF320FA02F018BFBC
:4051C00040F001004FEAC1234FEAD32303FA0CFC40EA0C0023FA02F34FEA4303CCE77FEA625307D150EA01331EBF4FF0FE4040F44000704701F0004040F0FE4040F40000F7
:40520000704700BF80F0004002E000BF81F0004142001FBF5FEA410392EA030F7FEA226C7FEA236C6AD04FEA1262D2EB1363C1BFD218414048404140B8BF5B42192B88BF1E
:40524000704710F0004F40F4000020F07F4018BF404211F0004F41F4000121F07F4118BF494292EA030F3FD0A2F1010241FA03FC10EB0C00C3F1200301FA03F100F00043A6
:4052800002D5494260EB4000B0F5000F13D3B0F1807F06D340084FEA310102F10102FE2A51D2B1F1004F40EBC25008BF20F0010040EA03007047490040EB000010F4000F89
:4052C000A2F10102EDD1B0FA80FCACF1080CB2EB0C0200FA0CF0AABF00EBC25052421843BCBFD0401843704792F0000F81F4000106BF80F400000132013BB5E74FEA410328
:405300007FEA226C18BF7FEA236C21D092EA030F04D092F0000F08BF0846704790EA010F1CBF0020704712F07F4F04D1400028BF40F00040704712F100723CBF00F5000063
:40534000704700F0004343F0FE4040F4000070477FEA226216BF08467FEA23630146420206BF5FEA412390EA010F40F4800070474FF0000304E000BF10F0004348BF404245
:405380005FEA000C08BF704743F0964301464FF000001CE050EA010208BF70474FF000030AE000BF50EA010208BF704711F0004302D5404261EB41015FEA010C02BF84461F
:4053C0000146002043F0B64308BFA3F18053A3F50003BCFA8CF2083AA3EBC25310DB01FA02FC634400FA02FCC2F12002BCF1004F20FA02F243EB020008BF20F00100704717
:4054000002F1200201FA02FCC2F1200250EA4C0021FA02F243EB020008BF20EADC7070474FF0FF0C1CEAD0521EBF1CEAD15392EA0C0F93EA0C0F6FD01A4480EA010C4002F2
:4054400018BF5FEA41211ED04FF0006343EA501043EA5111A0FB01310CF00040B1F5000F3EBF490041EAD3715B0040EA010062F17F02FD2A1DD8B3F1004F40EBC25008BF1E
:4054800020F00100704790F0000F0CF0004C08BF49024CEA502040EA51207F3AC2BFD2F1FF0340EAC250704740F400004FF00003013A5DDC12F1190FDCBF00F00040704771
:4054C000C2F10002410021FA02F1C2F1200200FA02FC5FEA310040F1000053EA4C0308BF20EADC70704792F0000F00F0004C02BF400010F4000F013AF9D040EA0C0093F032
:40550000000F01F0004C02BF490011F4000F013BF9D041EA0C018FE70CEAD15392EA0C0F18BF93EA0C0F0AD030F0004C18BF31F0004CD8D180EA010000F00040704790F029
:40554000000F17BF90F0004F084691F0000F91F0004F14D092EA0C0F01D142020FD193EA0C0F03D14B0218BF084608D180EA010000F0004040F0FE4040F40000704740F07D
:40558000FE4040F4400070474FF0FF0C1CEAD0521EBF1CEAD15392EA0C0F93EA0C0F69D0A2EB030280EA010C49024FEA402037D04FF0805343EA111143EA10130CF00040C0
:4055C0008B4238BF5B0042F17D024FF4000C8B4224BF5B1A40EA0C00B3EB510F24BFA3EB510340EA5C00B3EB910F24BFA3EB910340EA9C00B3EBD10F24BFA3EBD10340EAF1
:40560000DC001B0118BF5FEA1C1CE0D1FD2A3FF650AF8B4240EBC25008BF20F0010070470CF0004C4CEA50207F32C2BFD2F1FF0340EAC250704740F400004FF00003013AEC
:4056400037E792F0000F00F0004C02BF400010F4000F013AF9D040EA0C0093F0000F01F0004C02BF490011F4000F013BF9D041EA0C0195E70CEAD15392EA0C0F08D142027D
:405680007FF47DAF93EA0C0F7FF470AF084676E793EA0C0F04D14B023FF44CAF08466EE730F0004C18BF31F0004CCAD130F000427FF45CAF31F000437FF43CAF5FE700BFF9
:4056C0004FF0FF3C06E000BF4FF0010C02E000BF4FF0010C4DF804CD4FEA40024FEA41037FEA226C18BF7FEA236C11D001B052EA530C18BF90EA010F58BFB2EB030088BFF2
:40570000C81738BF6FEAE17018BF40F0010070477FEA226C02D15FEA402C05D17FEA236CE4D15FEA412CE1D05DF8040B704700BF844608466146FFE70FB5FFF7C9FF002898
:4057400048BF10F1000F0FBD4DF808EDFFF7F4FF0CBF012000205DF808FB00BF4DF808EDFFF7EAFF34BF012000205DF808FB00BF4DF808EDFFF7E0FF94BF012000205DF8A4
:4057800008FB00BF4DF808EDFFF7D2FF94BF012000205DF808FB00BF4DF808EDFFF7C8FF34BF012000205DF808FB00BF002101F015BA00BF0A22002101F0ACBA014B186829
:4057C000704700BF4086FF1F70B50F4E0F4D761BB61018BF002405D0013455F8043B9847A642F9D10A4E0B4D08F0A8FD761BB61018BF002406D0013455F8043B9847A642FB
:40580000F9D170BD70BD00BF48E3000048E3000054E3000048E30000032A70B426D940EA01039B0711D004780D78AC4222D10244431C05E013F8014B11F8015FAC4219D1C8
:405840009342F7D1002070BC70470C4603461E6825681846AE42214603F1040304F10404E1D1043A032A18462146F0D8002ADAD11046E8E7601B70BC704700BF844641EA77
:40588000000313F0030349D1403A23D30B6803604B6843608B688360CB68C3600B6903614B6943618B698361CB69C3610B6A03624B6A43628B6A8362CB6AC3620B6B036356
:4058C0004B6B43638B6B8363CB6BC36340304031403ADBD230320BD30B6803604B6843608B688360CB68C36010301031103AF3D20C3205D351F8043B40F8043B043AF9D2C6
:40590000043208D0D2071CBF11F8013B00F8013B01D30B8803806046704700BF082A13D38B07B1D010F00303AED0C3F10403D21ADB071CBF11F8013B00F8013BA4D331F8FA
:40594000023B20F8023B9FE7043AD9D3013A11F8013B00F8013BF9D20B7803704B7843708B7883706046704770B4840746D0541E002A41D0CDB2034602E0621EE4B314465A
:4059800003F8015B9A07F8D1032C2ED9CDB245EA05250F2C45EA054519D9264603F11002103E0F2E42F8105C42F80C5C42F8085C42F8045C02F11002F2D8A4F1100222F06D
:4059C0000F0204F00F041032032C13440DD91E462246043A032A46F8045BFAD8221F22F003020432134404F003042CB1C9B21C4403F8011BA342FBD170BC70471446034655
:405A0000C2E700BF0FB410B5074B82B004AC54F8042B186823468168019402F035FD02B0BDE8104004B070474086FF1F0EB40146F0B54FF6FF779CB021AC54F8042B0D48F4
:405A400023466FF00045029106914FF4027602A900680194ADF81670ADF814600495079501F064F9029B00221A701CB0BDE8F04003B070474086FF1F70B411F0FF0434D061
:405A800085070FD00378002B5AD09C422BD0431C05E013F8012B002A4FD0944223D09A071846F6D10E0206F47F462643036846EA064601E050F8043F86EA0305A5F10132B3
:405AC000A3F1013122EA050221EA0303134313F0803FEFD0037823B932E010F8013F002B2ED09C42F9D170BC704784070BD00378002BF8D0431C03E002780133002AF2D0D0
:405B000099071846F8D10268A2F1013323EA020313F0803F08D150F8042FA2F1013323EA020313F0803FF6D00378002BDBD010F8013F002BFBD170BC7047104670BC704738
:405B4000184670BC704700BF80EA0102844612F0030F4FD111F0030F32D14DF8044D11F0040F51F8043B0BD0A3F101329A4312F0803F04BF4CF8043B51F8043B16D100BFBE
:405B800051F8044BA3F101329A4312F0803FA4F101320BD14CF8043BA24312F0803F04BF51F8043B4CF8044BEAD023460CF8013B13F0FF0F4FEA3323F8D15DF8044B704716
:405BC00011F0010F06D011F8012B0CF8012B002A08BF704711F0020FBFD031F8022B12F0FF0F16BF2CF8022B8CF8002012F47F4FB3D1704711F8012B0CF8012B002AF9D178
:405C0000704700BF20F0030110F00300C0F1000051F8043B00F1040C4FEACC0C6FF000021CBF22FA0CF213434FF0010C4CEA0C2C4CEA0C4CA3EB0C0222EA030212EACC1211
:405C400004BF51F8043B0430F4D0C2F1000102EA0102B2FA82F2C2F11F0200EBD200704740EA01039B0770B42BD1032A29D90C460346214654F8046BA6F1013525EA060513
:405C800015F0803F06D1043A032A43F8046B2146EFD8A2B10C78013A1C70013101333CB16AB111F8014B013A03F8014B002CF7D12AB11A44002103F8011B9A42FBD170BCEA
:405CC00070470346E5E700BF2DE9F0410F46904606F0F0FC04460D46B8F1000F11D0C7F30A53C3F16B03002B0BDD1B0503F17F55002405F5401522462B46FEF783FFBDE8F3
:405D0000F08120462946BDE8F08100BF000000002DE9F04F0E4683469FB005920B4600220021CDE90212002219961A921A4613F8017B2D2F00F2EE80DFE817F02E00EC008A
:405D4000EC00EC00EC00EC00EC00EC00EC00DB00DB00DB00DB00DB00EC00EC00EC00EC00EC00EC00EC00EC00EC00EC00EC00EC00EC00EC00EC00EC00EC00EC00DB00EC0009
:405D8000EC00EC00EC00EC00EC00EC00EC00EC00EC004400EC00D800059B4FF000094FF0000A53B100230693059B1E60069B23B149460AF1004389469A46484651461FB09B
:405DC000BDE8F08F00230693541C19945778002FE2D0302F00F0A48008944FF0000AA7F130034FF00008092B45462346444619D8082CC8BF08EB880805EB850203F101033C
:405E000007EB42021993C4BF07EB4807A7F130081F78D8BFA2F13005A7F13002092A04F10104E5D95846079305F0C8FDD0F80090584605F0C3FD0068FFF7E4FE079B02467A
:405E40004946184606F0E8FD8146002800F0E280002084468646A146652F73D0452F71D00023B9F1000F46D0B9F1100FCA46CCEB03032846A8BF4FF0100A0A93FEF74CFE5E
:405E8000002C08BF4C46BAF1090FCDE9020113DD724B03EBCA0353E91223FEF7B3FE064640460F46FEF738FE02460B4630463946FEF7F6FCCDE90201B9F10F0F00F3D680D1
:405EC0000A9B002B00F0A38040F35A850A98162800F39784DDE90223604901EBC001D1E90001FEF78FFE81468A460DE0012306936AE719931AE718B9BAF1000F00F0A08265
:405F00004FF000094FF0000A059B002B3FF44EAF199E49E70023302F144606937FF45CAF6378582B00F04683782B00F04383013419942778302FFAD0002FE1D008944FF026
:405F4000010A4CE7B9F1000F00F00682199E731C199377782B2F00F06A822D2F00F0618200230793A7F13003092B00F21982302F05D1199B013319931F78302FFAD0A7F102
:405F80003103082B3FF66CAF199B19460A46013219920A93A7F130034F78A7F1300109290BD80132199203EB830307EB43031778303BA7F130010929F3D90A99521A082A50
:405FC00000F3168444F61F629342A8BF1346079A002A3FF446AF5B42B9F1000F7FF444AF89E719A81E4905F007FC00283FF4D4AE199B19A8013B1B49199305F0FDFB10B931
:40600000199B01331993184B039300230293DDE9029A79E7584605F0D1FC0068FFF7F2FD199A13181993175C002C40F0E881302F204605D1013319931F780130302FF9D07F
:40604000A7F13103082B40F23C84652F00F080814FF00009CC464FF0010EFFE640E200008CE0000090E000000000F07F0A9BCAEB090A9A44BAF1000F40F361831AF00F007B
:406080000AD0DDE90223BA4901EBC001D1E90001FEF7B8FDCDE902013AF00F0640F028820023079300954B4622460899584606F065F80E90002800F0C2820A9A0021002A6E
:4060C000C2F10003A8BF0B460F468A460B9322EAE2730A930E9C5846616805F0DDFF8046002800F0D282DDE90223214615461E4622690C31023292000C30CDE90856FFF778
:40610000BDFB1CA81BA901902A4633460091584606F05CFB1A90002800F044840121584606F0C6F80746002800F0AF821B9B002BC0F22A810B9A0A99D51807981C9A1B1A98
:4061400013448C48013B8342C2F1360280F2E780C01A1F28A2EB000200F31A81012383400D9300230F93AE18B5422B46A8BF33460A4407998C18A342A8BF2346002B02DD46
:40618000F61AE41AED1A0B9BBBB139461A46584606F036F90746002800F0778201461A9A584606F08FF8002800F06F820C901A99584605F099FF0C9B1A93002E08DD324640
:4061C0001A99584606F06CF91A90002800F0EA830A9B43B141460A9A584606F011F98046002800F05282002C08DD41462246584606F056F98046002800F04782002D08DD14
:4062000039462A46584606F04BF90746002800F03C8242461A99584606F0B8F98246002800F03382C36800263946C6600C9306F08DF9B042C0F2B98300F00A8439465046DB
:4062400006F018FB00224FF0804304460D46FEF755FF002868D00C9B002B00F0AD80039B454D9946444B0D9600240F934A46434E434B16409E4200F0B881079B33B3B6F178
:40628000D46F23D838A3D3E90023DDF83C900D984946FEF733FFB0B10D98494607F0F2FA002800F0D082FEF737FC0D900F910C9B002B40F0C3820D9B12930F9B03F100432E
:4062C0001393DDE9124505F1D6639D1BDDE9080106F0F0F902460B4620462946FEF792FCDDE90823FEF7DCFA0C46CDE90201079B23B9224B23409E4200F0E8811A995846B6
:4063000005F0F2FE4146584605F0EEFE3946584605F0EAFE5146584605F0E6FEDAE600230F9301230D931EE7164B204629460022FEF768FC0C9B0D900F91002B37D101F162
:40634000004310901193039BDDE9104599468DE74FF0000C4FF0010E00286ED1BAF1000F3FF41AAD8146F1E50000C0FFFFFFDF4140E2000002FCFFFF0000F03F0000F07FA0
:406380000000E07F0000E03F0A9A0B9DD11AD4E6B0480124C01A04FA00F30F930D94E2E619960023B9F1000F7FF45EADA3E50D9A0F9BCDE91023C6E7DDE90212002940F0D0
:4063C000DB80C2F313039146002B40F0DB800022A14B20462946FEF787FE002840F05F839E4B204629460022FEF70CFC01F100430D900F9116901793DDE9164536E74846E8
:40640000A1468446A7F13003092B13D8421C1F46002B40F02D821046199A531C19935778F0E701230793B31C1993B7789AE500230793F8E74FF0010E0EE54FF0000985E5B4
:40644000BEF1000F7FF4A8AC493F252F3FF6A4AC01A353F827F000BFE35F0000995D0000995D0000995D0000995D000093650000995D0000995D0000995D0000995D000087
:40648000995D0000995D0000995D0000995D0000995D0000995D0000995D0000995D0000995D0000995D0000995D0000995D0000995D0000995D0000995D0000995D00007C
:4064C000995D0000995D0000995D0000995D0000995D0000995D0000E35F0000995D0000995D0000995D0000995D000093650000B6F59A7F00F3A3803611012EDFF880A17E
:4065000040F3E582DDE9020100235746984616F0010F08F101084FEA660604D0D7E90023FEF770FB0123012E07F10807EFD1002B40F04083039B0AEBC808A3F154730393FA
:40654000DDE90223D8E90001FEF75CFB21F000431B0D434A1B059342CDE902016FD8A2F58012934240F296823E4B0393002307934FF0FF33029395E5DDE90212012900F08C
:406580006681914600230D93334B0024364D0F936CE619A8354905F02FF900283FF4FCAB199B1B78282B00F0D582314B0393002302932CE5069A1AAB019200932D4A1BAB5F
:4065C00019A9584604F092FE10F0070605463FF497AC062E40F08381631C199300234FF000094FF0000A06938EE4A9F154730393DDE902231046194606F05CF802460B461D
:4066000020462946FEF7FEFADDE90223FEF748F921F000431B0D184A1B059342CDE90201DDE90801CDE9140140F2E6800D4B994228D00C4B03934FF0FF3302935EE60F4BFD
:406640000022039302922223DDE9029ACBF800305AE400BFE2FBFFFF0000F03F0000E03F0000A07CFFFFEF7F0000F0BF98E000000000F8FF78E00000FFFF9F7C0000F07F88
:4066800008E30000149B0133D3D1CDF828A01A98B14B0022039322230292CBF80030DDE9029A0146584605F01FFD4146584605F01BFD3946584605F017FD0E99584605F0BF
:4066C00013FD0A99584605F00FFD1DE40D9E0F9D3046294607F0AEF8FEF72EFA0B46024629463046FEF7DAF80C9B05460E4693B9029B83B9C4F313046CB991A3D3E900239B
:40670000FEF7F2FC00283FF4F9ADCDF828A01A98DDE9029AC5E78CA3D3E9002328463146FEF7E2FC0028F0D189A3D3E9002328463146FEF7F7FC00283FF4E0ADE5E73FF4BA
:40674000AFACCAF1000616F00F020AD0DDE90201824B03EBC203D3E90023FEF77DFBCDE9020136113FF49CAC1F2E38DC16F0100300F0E0816A23002E079313DDDDE9020123
:40678000774F0023F20704D5D7E90023FEF73AFA0123761007F10807F4D1002B40F0FC81079B9BB1DDE90212C2F30A53C3F16B03002B11460ADD1F2B40F3C4810022342B1C
:4067C000029240F3EF814FF05C73039300220023DDE90201FEF77EFC00283FF463AC2223CBF800304FF000094FF0000AFFF78CBB44F61F63FFF7EBBB039B03F15474039488
:4068000075E50A9EC9F125039E423FF72FACDDE90223524CC9F10F0904EBC901C9EB060904EBC904D1E90001FEF7ECF9D4E90023FEF7E8F981468A46FFF766BB0D9A0F9BA6
:40684000CDE912233DE5474B0D900F932FE5DDE902129146002A7FF495AECDF828A02223CBF800301A984FF000094FF0000A18E7012A944418BF484403D188E155008145D0
:406880000FD009F1010909F1FF32082A05EB8502F4DDB9F1100FDCBF08EB88084FEA4808EDE7199A09F10109082812DDB9F1100FD8BF08EB88084FF00000D8BF03EB48083F
:4068C000ABE5199B303F1A46089300F1010C4FF0010905EB850507EB450500209DE51A9A3AB135211CA805F0EFFF58461A9905F0FBFB062E0BD8DFE806F01D3718130437E5
:406900001D006FF0004303934FF0FF33029329077FF57DAB039B43F000430393FFF777BB0D4B039300230293F1E71C9B02931D9B0393ECE7002303930293E8E7AFF3008034
:406940009535A094FFFFCF3F9535A094FFFFDF3F35E5AF350000E03F0000F07F40E2000050E000000000F03F1B9A1D9B1C9902F2334223F4801343EA025302910393C6E759
:406980000A9A12F11603FFF671ABDDE902018B4BA3EBC203D3E90023FEF75EFA81468A46FFF7B2BACDF828A072E60C9E5546CDF828A0DDE9089A7EBBDDE9020160BBC1F3FF
:4069C00013030C4643BB21F000431B0D1B05B3F1D66F21D96B6913B92B69012B1CDD0A990122584605F05CFD39460A9005F0AEFD002811DD079B002B40F0BE80704B23407F
:406A0000A3F580136FEA13536FEA035303934FF0FF330293DDE9029A079BBBB1694B48461593002314935146DDE91423FEF7EAF803460C4681468A46CDE9023431B9029BED
:406A400023B922231A98CBF800302AE61A9828E60C9ECDF828A0DDE9089A4EB3DDE90245594BC5F3130199422A4645D00F9B4BB3039A1342D0D0DDE90201079A56B3FFF760
:406A800023F902460B4648465146FDF709FF81468A46C1E701F154730393FFF701BB4B4C0023CDE916340C9B0D93494B0F93A3E4DDE90212C2F313031446002BD6D1002908
:406AC000D4D197E70D9B029A1342A5D0D3E74FF000082FE5FFF7F8F802460B4648465146FDF7DCFE0022002381468A46FEF7F2FA00287FF4B4AE8FE7079B0299FBB1304B4A
:406B00002B40B3F1D46F1AD81B0DC3F16B034FF0FF3000FA03F38B42A8D12E498A423ED0274B134003F58013039300230293DDE9029A71E7002E07933FF720AE46E64FF043
:406B4000FF33E8E74FF0FF3202FA03F3029A1A4002923BE619A81CAA1F4904F065FE05287FF423AD1D9B43F0FF4343F4E00303931C9B0293FFF74BBA114B2340B3F1D66F85
:406B80003FF73EAFB3F15C7F3FF748AF67E64846199A09F1010987E6CDE9020100E60133BED174E5203B4FF0FF3202FA03F30B4003930BE6CDE90201BCE400BF40E2000083
:406BC0000000F07F00005039FFFF0F000000E0BF0000E03FFFFFEF7F9CE00000024B0A4601461868FFF794B84086FF1F2DE9F04F474C83460E46D4F800E000E026463446E9
:406C000014F8015B0EEB0500407800F0080000F0FF080028F2D12D2D5CD02B2D04BF7578B41C002B3ED0102B60D09A46B8F1000F0CBF6FF000404FF00040B0FBFAF9002714
:406C4000BC460AFB19000CE0303DAB4219DD7E1C05D0CC4523D820D00AFB0C5C012714F8015B0EEB0506767816F0040FECD116F0030606D0012E14BF57263726AD1BAB4212
:406C8000E5DC7B1C16D0B8F1000F10D16046002A39D0DFB91160BDE8F08F8542DCDD4FF0FF37DCE7302D1AD00A239A46BEE7CCF1000CEBE7B8F1000F4FF022030CBF6FF065
:406CC00000404FF00040CBF80030F2B1611E1160BDE8F08FB41C75784FF00108A1E7237803F0DF03582B08D008239EE7302D9CD1207800F0DF00582897D14FF0100A6578D4
:406D00005346023492E7BDE8F08FBDE8F08F00BF1482FF1F10B4044C13460A460146206810BCFFF763BF00BF4086FF1F2DE9F04FC1B00C46099115460E930A9004F03EFEC5
:406D4000036818461793FEF75DFFA38916901E0603D52369002B01F05D8100231A46A8460DF1C009DFF860A4129319930B9325932493CDF88C901492159298F80030444612
:406D8000EBB1252B02D11AE0252B03D014F8013F002BF9D1C8EB04058DB1249B259A01332A44072BC9F80080C9F804502592249300F3328309F108090B9B2B440B932378A5
:406DC000002B00F0EA814FF0FF3B5D4600231A468DF86F3019460C930793637804F1010808F10108A3F12000582800F24586DFE810F0F30343064306FC03430643064306BD
:406E00004306430643065900040443066600D0034306EC03BC05BC05BC05BC05BC05BC05BC05BC05BC054306430643064306430643064306430643064306E205F70443068E
:406E4000F70443064306430643064205430643064A0543064306430643064306740543064306CD0543064306430643064306430643064306430643061D060E06F704F7047A
:406E8000F70415060E0643064306A3044306A805AE046D000A0443061204430635044306430670040E9C236818460C932346002803F104030E9306DA0C9B5B420C93079BA1
:406EC00043F00403079398F8003089E7AB460E9A0027079830217823BB4514688DF8701002F104024FF000058DF871308DF86F7040F00201C0F23D8620F0800141F002018E
:406F0000079154EA05010E921193AD4800F0318130AE230943EA0573290904F00F020D461C46835C06F8013D54EA0503F1D130AB9B1B0D930D9B5B45B8BF5B46089300238D
:406F4000139317B1089B01330893079B13F002030F9302D0089B02330893079B13F08403109340F018810C9B089A9D1A002D40F31281102D2599249A924F27DD189648463B
:406F80001024B946099E2F460A9D04E0103F102F00F1080016DD01328A4B1031072A2591249280E81800F1DD23AA3146284605F081FD002840F0F880103F102F30A8259930
:406FC000249AE8DC3D464F468146189E01326C18072A25942492C9F80070C9F8045000F3D0809DF86F7009F1080977B1249B013401330DF16F010122072B2594249389E827
:40700000060000F3208209F108090F9B6BB1249B023401331CA90222072B2594249389E8060000F31C8209F10809109B802B00F02C810D9BC3EB0B07002F33DD624A102F98
:40704000249B0F9222DD22464FF0100B0A9D099C04E0103F102F09F1080916DD01331032072B2592249389E8000CF2DD23AA2146284605F01FFD002840F09680103F102F22
:407080000DF1C009259A249BE8DC144601330F9A3C44072B2594249389E8840000F3C78109F10809079BDA0500F19080249B0D9901330C44072B2594C9F80060C9F80410E7
:4070C000249300F3E28109F10809079B590736D50C9B089A9D1A002D31DD102D249B394F22DD22461026DDF828B0099C04E0103D102D09F1080916DD013332491032072B2E
:407100002592249389E84200F1DD23AA2146584605F0D0FC002847D1103D102D0DF1C009259A249BE8DC144601332C44072B25942493C9F80070C9F8045000F392840B9B65
:407140000C9A08998A42ACBF9B185B180B93002C40F05981002324930DF1C0090DE60027BB458DF86F70C0F20E85079B23F080030793BBF1000F00F06C8400240025002756
:40718000C6E623AA09990A9805F094FC60B99DF86F700DF1C009259C27E7259B23B10A9823AA099905F086FC099B9B8913F0400F0B9B18BF4FF0FF33184641B0BDE8F08FD3
:4071C000D0E00000B0E00000F0E00000119B652B40F39F801498159900220023FDF77AFF002800F06381249BAE49013301340122072B2594249389E8060000F3538409F1CA
:4072000008091D9B129A934203DB079BDB077FF55CAF249B16990133179A0C44072B2594C9F80020C9F80410249300F3E68609F10809129B5D1E002D7FF747AF9A4A102DDC
