:400000000080002011000000811900008119000008B5044B1A6803F53F5302331A6001F0CFFC00BFFA46004010B5054C237833B9044B13B10448AFF300800123237010BD77
:40004000C08EFF1F000000005CEA0000084B10B51BB108490848AFF300800848036803B910BD074B002BFBD0BDE81040184700BF00000000C48EFF1F5CEA0000C880FF1F6C
:40008000000000000000000030B591B001F090F8012400942F237F221121002001F098F9204601F0FDF84E4D286805F063FCCDE9000106224B490AA806F0C4FB022001F069
:4000C000E7F80021042001F0DDF80AA801F0A2FA204601F0DDF81421102001F0D3F8424801F098FA14213A2001F0CCF83F4801F091FA14215F2001F0C5F83D4801F08AFADA
:40010000286805F037FC32A3D3E9002305F002FF80B1384B07930522069200200021CDE9040107230293CDE9000133490AA806F089FB18E02A4C606805F01CFCCDE9080134
:4001400006230693A06805F015FCCDE9040107230293E06805F00EFCCDE90001052227490AA806F06FFB012001F092F81E21012001F088F80AA801F04DFA71230322204915
:400180000AA806F05FFB012001F082F83121052001F078F80AA801F03DFA0FA3D3E90023CDE90023042217490AA806F04BFB012001F06EF83121442001F064F80AA801F003
:4001C00029FA01F003F811B030BD00BFAFF300809A9999999999B93F3333333333332340DC8EFF1F68EA000074EA000078EA00007CEA000090EA000080EA000094EA0000DB
:40020000A8EA0000B4EA000038B501F0E5FF20B101F0DCFF08B102F0FDF800220F4B1A8201F0D4FFB8B102F069F920B10C4802F07DF90A4B1882094B1A8A62B1094C25688D
:400240000749284606F026FA044B188A284420606268801A1882014B188A38BDDC8EFF1FD88FFF1FCC80FF1F114B5B8A33B97047013440F2DA539C4202D910BD10B500248E
:4002800002F048F918B940F2DB539C42F0D9084C618A084802F00AF9638A402B07D102F039F90028FBD00021084602F0FFF810BDDC8EFF1F2090FF1F70B58CB0174C237D89
:4002C00003EB83039D00164B1D44164EA06905F051FBCDE90A01E06905F04CFBCDE90801206805F047FBCDE90601A06805F042FBCDE90401E06805F03DFBCDE90201009544
:40030000094B66220949304606F09CFA304606F085FB6082FFF7A8FF0CB070BDDC8EFF1F6090FF1F2090FF1FC0EA0000C4EA000070B5854C94F82020844B53F82210606AA5
:4003400005F070FE6062002400260FE0002003F07BF8052001F012FC03F0E2FA03F0CCFA0146304605F060FE06460134002CEDDD754D95F82040754B43F82460696A3046EF
:4003800005F052FE68620134E4B285F82040012C02D9002285F820204FF07C5105F04CFF6B4CA16805F03EFEE16805F0F9FF664C0146A06A05F036FE002105F035FEE06077
:4003C00005F0D8FA0022634B05F074F90022624B05F04EFC02460B4600205F4904F02EF805F0CCFD20605D4906F0E2F808B15B4A2260554C2368E36294F83020584B53F8AC
:400400002210606B05F00EFE6063002400260FE0012003F019F8052001F0B0FB03F080FA03F06AFA0146304605F0FEFD06460134002CEDDD444D95F83040494B43F8246013
:40044000696B304605F0F0FD68630134E4B285F83040012C02D9002285F830204FF07C5105F0EAFE3A4C216905F0DCFD616905F097FF354C0146A06B05F0D4FD002105F00B
:40048000D3FDA06005F076FA0022324B05F012F90022314B05F0ECFB02460B4600202E4903F0CCFF05F06AFDE0612E4906F080F808B12C4AE261244CE069E063216805F092
:4004C0006FFF0546284605F055FA04F04FF905F055FD06464FF07E5105F0A6FD054631464FF07E5005F09EFD0146284605F058FF60602468204605F03DFA0FA3D3E900234D
:4005000005F008FD10B100220F4B5A600E4B586805F030FA0AA3D3E9002305F00FFD10B1114A094B5A60084B5A689A611C64FFF7C3FE70BDAFF300809A9999999999B93FB6
:40054000CDCCCCCCCCCC2340DC8EFF1F1890FF1FCC80FF1F00003E4000002440003C1C462C91FF1F00C0794400002041F8B5002413E0A5002A199300094E1E44094F07F116
:4005800018011944304606F0EBF92544AB003B445A6AF2609B6A33610134092CE9D9F8BD6090FF1FCC80FF1F08B5042001F0C6FB592804D1094B93F84430012B08D159211F
:4005C000042001F053FB0022044B83F8442008BD4E21042001F04AFB08BD00BFDC8EFF1F30B40848037D084C9A00D518A9000D462144C96881622A4622441369836330BC86
:40060000704700BFDC8EFF1F6090FF1F70B59AB0002431E0A3001A19950019490D44EE68286905F0A7F9CDE90401304605F0A2F9CDE902010095134B6622134906A806F07B
:4006400001F906A806F0EAF980B2104B5882002307E01AAA1A4412F8501C0D4AD1540133DBB29AB29042F4D801330021084AD154FFF7FAFD0134E4B2092CCBD91AB070BD75
:400680006090FF1FE8EA0000ECEA0000DC8EFF1F2090FF1FF0B585B005460F4616461AB14FF4967001F054FA2946384601F060FB28B95EB14FF4967001F04AFA06E08EB337
:4006C0004FF4FA6001F044FA012030E016B1642001F03EFA00240AE004EB051080B201F02DFB04AB234403F8100C0134A4B20F2CF2D910223946684605F09AFF30B19EB151
:400700004FF4FA6001F024FA012010E01EB14FF4967001F01DFA4EB14FF4487001F018FA002004E0012002E0012000E0002005B0F0BD00BF30B5B7B001F014FB00221146D1
:40074000532001F06FFB002861D153238DF8C83000248DF8C940304D95F8E0308DF8CA302E4B1A7D8DF8CB2093F844308DF8CC308DF8CD408DF8CE408DF8CF408DF8D040C5
:400780008DF8D1408DF8D2408DF8D3408DF8D4408DF8D5408DF8D6408DF8D740224632A92046FFF777FFE43595E803003290ADF8CC10090C8DF8CE10224632A90120FFF747
:4007C00069FFC8221649684605F064FF16E004F1200189B236AB234413F8D80C01F046FA10F0FF0F04D1C1B20E4806F017F803E0C1B20D4806F012F80134A4B2C72CE6D9FA
:4008000000221146472001F00DFB10B902E0012000E0012037B030BDCC80FF1FDC8EFF1F6090FF1F04EB00001CEB000010B5B2B0002001F083FA204B83F84500472837D1F1
:40084000002408E0204601F079FA32AB234403F8C80C0134A4B21F2CF4D99DF80220174B83F8E0209DF80310134A11759DF8041082F8441004AA92E80300C3F8E400A3F8F1
:40088000E810090C83F8EA1000240AE004F1200080B201F053FA32AB234403F8C80C0134A4B2C72CF2D9C8226946054805F0F2FE012032B010BD00BFDC8EFF1FCC80FF1F7B
:4008C0006090FF1F10B50446002001F037FA1D4B83F845001C4B1B780BB9472801D1412C29D14FF47A7001F033F9FFF723FFF0B1002001F023FA134B83F8450041F28830D1
:4009000001F026F94FF47A7001F022F9FFF712FF68B1002001F012FA0A4B83F8450042F2107001F015F90123074A137008E00023054A137004E0FFF779FF034600B1012324
:40094000184610BDDC8EFF1F2891FF1F08B503F067F93C2000F076FC01F0F6FA62B600F027FC00F033FC0121002001F0F7FBFFF7FDFD02F04FFF02F0E9FF01F0A3F801F048
:40098000D7F801F06FF9072001F0E2F80020FFF799FF0A4B1870FFF723FE002307E00022074941F82320074941F823200133012BF5DD4FF47A7001F0CBF808BD2891FF1F08
:4009C0001890FF1F2C91FF1F08B5084B93F84630012B0AD10021084601F048F9FFF7C6FD4120FFF76FFFFFF7FBFD08BDDC8EFF1F70B590B040220021684605F0C1FE664BE9
:400A00001B8A002B00F09481644B5C680A21204605F03EFF002800F08B8100230370051BEDB22A462146684606F026F86B1C1C445A4B5C601B689C4201D2402D03D9574B32
:400A4000574A1A605A60564805F0E8FF3E2814D90022514B83F848206AE1524B1B6813445B7813F0070F05D04B1C10A8014401F8402CD9B20134E4B201E000210C46464BAC
:400A8000234493F848202C2A01D0AC42E5D910AB1944002301F8403C684605F097FD662840F04681AC4280F043810134E4B2002307E0591C10A8034403F8402C0134E4B200
:400AC000CBB2354A224492F848202C2A01D0AC42EFD910AA1344002203F8402C324805F09DFE6946314805F099FE684605F06EFD782840F01D81AC4224D20134E4B200231F
:400B000007E0591C10A8034403F8402C0134E4B2CBB2214A224492F848202C2A01D0AC42EFD910AA1344002203F8402C204805F075FE69461D4805F071FE684605F046FD43
:400B4000C6B200E00026AC4236D2631CDBB2002207E0501C10AC224402F8401C0133DBB2C2B20D49194491F848102C2901D0AB42EFD910AB1A44002302F8403C0D4805F068
:400B80004DFE6946094805F049FE684605F01AFD05F0F4F9044610E0DC8EFF1FCC80FF1F248FFF1F1886FF1F40EB000050EB000054EB000060EB00000024FF2E03D1012221
:400BC0005C4B83F88820FE2E0DD15A4B012283F889201B7D1344DBB2574A13700A2B02D90022554B1A70FD2E03D10122514B83F88A20FA2E01D1FFF709FDF92E06D101223F
:400C00004C4B83F8892009224B4B1A70F82E06D10122484B83F889200822474B1A70F72E06D10122434B83F889200722424B1A70F62E06D101223F4B83F8892006223E4B03
:400C40001A70F52E06D101223A4B83F889200522394B1A70F42E06D10122364B83F889200422354B1A70F32E06D10122314B83F889200322304B1A70F22E06D101222D4B87
:400C800083F8892002222C4B1A70F12E05D10123284A82F88930284A1370F02E06D10122244B83F889200022234B1A70EF2E01D1FFF77AFCC12E03D101221E4B83F84620E8
:400CC000C22E0AD11B4B93F84630012B01D1FFF77BFE0022174B83F84620C32E03D1FFF7A5FDFFF77DFCA6F16403DBB2092B0DD8A6F1640303EB83039A00104B1A44D46087
:400D0000FFF718FDFFF792FDFFF76AFCA6F16E03DBB2092B0CD86E3E06EB8606B300074A13441C61FFF706FDFFF780FDFFF758FC10B070BDDC8EFF1F3491FF1F6090FF1FFD
:400D400010B502210F4B93F8E00000F08FFF0E4C0321207D00F08AFF042194F8440000F085FF002409E0074B234404F1100193F8E40000F07BFF0134E4B2062CF3D90020BD
:400D800010BD00BFCC80FF1FDC8EFF1F08B5FFF7DDFDFFF739FA294B1B8A0BB1FFF728FE264B93F88830012B0ED10022234B83F88820234B93F8E030012B03D00122204B06
:400DC00083F8E020FFF7BCFF1C4B93F88930012B17D11A490A7D0132D2B20A750A2A02D90021164A1175012B03D1164B1A78134B1A750022114B83F88920FFF7F1FBFFF778
:400E00009FFF0E4B93F88A30012B0ED100220B4B83F88A200A4B93F8E030022B05D00222074B83F8E020FFF78BFFFFF781FAFFF72BF9C82000F08CFEABE700BFDC8EFF1FA5
:400E4000CC80FF1F3491FF1F83B27F2B3CD800293ADB3F2938DC012A03D09AB1022A23D070471A4A0B46002900DACB1DDB1000EBC31001F00701012303FA01F1135C194339
:400E800011547047114A0B46002900DACB1DDB1000EBC31001F00701012303FA01F1135C23EA010111547047084A0B46002900DACB1DDB1000EBC31001F00701012303FADF
:400EC00001F1135C59401154704700BFE181FF1FF0B5BDF81440904267D10D46002900DACD1DED1000EBC510444F07441846002B00DAD81DC01002EBC012404810443A46C7
:400F000050E0BA4218D13E4D0D4003D5013D65F007050135EEB2F5186D1AEDB2062D00D90725AD1B01354FF0010E0EFA05F5013D05FA06F6F6B20EE082420CD1304D1D4074
:400F400003D5013D65F0070501352DB2012606FA05F56E1EF6B2BA4201D0824212D1012C03D034B1022C09D01BE015783543157017E0157825EA0605157012E01578754054
:400F800015700EE0012C03D02CB1022C06D008E0FF25157005E00025157002E01578ED43157080328242ACD9F0BD0B46002900DACB1DDB1000EBC313104D2B44121A1A44B3
:400FC00001F00701012000FA01F1CDB212E0012C03D034B1022C09D00BE018782843187007E0187820EA0100187002E018786840187001339342EAD9F0BD00BFE181FF1FBC
:4010000007000080B1F90020154B1B78022B0CD0032B19D0012B21D1B0F900300B80114B1B889A1A013A02807047B0F900200D4B1B889B1A013B0380B1F900200A4B1B88A9
:401040009B1A013B0B80704710B4B0F90040064B1B881B1B013B0B80028010BC704700BF3891FF1F3691FF1F3A91FF1F10B584B0ADF80E00ADF80C10ADF80A20ADF808300D
:40108000904203D009B21BB2994271D1394B1B78012B01D0032B1AD1002869DB364BB3F90030984264DA002A62DB9A4260DABDF90C30002B5CDB314AB2F90020934257DABB
:4010C000BDF90830002B53DB9A421ADC50E0BDF90C30002B4CDB2849B1F900108B4247DABDF90830002B43DB994241DD00283FDB224BB3F9003098423ADA002A38DB9A4288
:4011000036DA03A90DF10E00FFF77CFF02A90DF10A00FFF777FFBDF90E30BDF90A20934205D1BDF90800BDF90C10884207DBBDF90C00BDF9081088420DD193420BDDADF802
:401140000E20ADF80A30BDF90C30BDF80820ADF80C20ADF80830BDF90830BDF90A20BDF90C10BDF90E00BDF818400094FFF7B0FE04B010BD3891FF1F3A91FF1F3691FF1F06
:40118000F8B507460E460021084B187802F0C4FE0024FF2504E0385D02F01AFF05460134B442F8DB02F0F8FE2846F8BD708FFF1F10B5054C4FF480620021601C05F0E0FA45
:4011C0004023237010BD00BFE081FF1F00B583B00A4B186800909A889B79ADF804208DF8063007216846FFF7CBFF40F201410448FFF7C6FF03B05DF804FB00BF9CEB000089
:40120000E081FF1F0A4B18800A4B19800A4B58809980002209490A70DA801A8101229A724FF6FF719981D981054B1A70704700BF3691FF1F3A91FF1F708FFF1F3891FF1FB1
:401240003C91FF1F30B589B00C4B187040218020FFF7D8FF01AC0A4D55F8080F6968AA68EB680FC42869696903C42B8B23801A2101A8FFF785FF09B030BD00BF708FFF1FE4
:401280009CEB0000014BD88019817047708FFF1F08B90120FFE7014B98727047708FFF1F014B9881D8817047708FFF1F10B582B0ADF80600ADF80410002819DB0D4BB3F996
:4012C0000230984214DA0BB2002B11DB0949B1F904108B420CDA144601A90DF10600FFF791FE2246BDF90410BDF90600FFF7ACFD02B010BD708FFF1F2DE9F04F85B00546D2
:401300000E461746BDF838200292B84201D0994207D1029A00923A4631462846FFF7A6FE52E0C1EB0308B8F1000FB8BFC8F10008C0EB0709B9F1000FB8BFC9F10009C8451C
:4013400004DD3A461F4613460D460646BD4205DD32461E4613462A463D461746C5EB070B1FFA8BFB0FFA8BF4C6EB030ABAF1000FB8BFCAF1000A04EBD47464109E4202DA45
:40138000012303931EE04FF0FF3303931AE0C84505DD029A29463046FFF788FF04E0029A31462846FFF782FFCAEB0404A3B21CB2002C05DA039A164436B20BEB030424B20E
:4013C00001352DB2BD42E2DD05B0BDE8F08F00BF2DE9F04182B080460E461C46BDF820700244551E2DB200970B462A46FFF784FF3444013C24B2009723462A4621464046F7
:40140000FFF77AFF00972346424631464046FFF773FF009723462A4631462846FFF76CFF02B0BDE8F08100BF2DE9F04383B005460E4617469846BDF8289093420FDC0C463E
:401440001EE006EB0803013BCDF800901BB2224631462046FFF750FF013424B200E00446EB199C42EDDB0FE0EA19013ACDF80090234612B221462846FFF73EFF013424B2E9
:4014800006EB08039C42EFDB03B0BDE8F08300BF2DE9F04F85B0BDF838B09DF83C60364CB4F90240844263DD334CB4F904408C425EDD06EB46056C000444012C58D401EB81
:4014C000C604012C54D4984603928A46814600274CE0052F08D0039B03EB83033B44274A134493F8245000E0002500243AE015F0010F19D0012E09D104EB0A0107EB0900CD
:40150000424609B200B2FFF7D1FE28E0B0B232B204FB00A107FB0090CDF80080134609B200B2FFF781FF1AE0D84518D0012E09D104EB0A0107EB09005A4609B200B2FFF7F0
:40154000B5FE0CE0B0B232B204FB00A107FB0090CDF800B0134609B200B2FFF765FF6D08013464B2072CC2DD01377FB2052FB0DD05B0BDE8F08F00BF708FFF1F9CEB0000C7
:401580000A2808D11A4B997A1A8902EBC1021A810022DA8070470D28FCD030B583B00246134CE389B4F90810B4F90600A57A0195A5890095FFF76CFFA27A91B201EB41037B
:4015C0005800E38803441BB2E3800A48007868B1A2EB82025000B4F902201044834205DD228902EBC10121810022E28003B030BD708FFF1F3C91FF1F70B5064605F00EFA0D
:401600000546002403E0305DFFF7BAFF0134AC42F9D370BD08B5FFF7EFFF0A20FFF7B0FF08BD00BFFEE700BFF0B40022174611E050F82760F3B226F0FF0608E001EB4205AA
:4016400011F812406D78A5550132013BDBB2002BF4D10137182FEBD9F0BC70470C4B1B78DBB203F007010B4A11701B09013213700822094B1A704FF4827203F633231A8054
:40168000052205331A704422A3F2CF231A707047CF0100496E5800400D51004008B50A46002105F06DF808BD08B504F0F3FF08BD38B500242F4B1C80502202331A704FF406
:4016C0009C7202331A80182202331A7004222A492A48FFF7E9FF2622294B1A705222A3F580731A70274B1B78DBB2274A13704FF4E162264B1A8041F25122023B1A8019258A
:401700000CE0234B1B7803F0010343EA440404F003044FF4F07002F087FC013D0DB1032CEFD115B90320FFF77DFF1A4A4FF48073138007231370002317490B70482002317C
:4017400008701370053213700222144B1A7004220A331A70124A137843F003031370013A137843F001031370013A137843F08003137038BD80400040E803004800410040EF
:40178000004300400F010049A14600402242004025420040044000400640004001400040A2430040012814D810B44000C0B2094B53F820101A18147C0A7822430A7001307D
:4017C000C0B253F820201844017C13780B43137010BC7047BCF00000012816D810B44000C0B20A4B53F820101A18147C0A7822EA04020A700130C0B253F820201844017C54
:40180000137823EA0103137010BC7047BCF00000012808D8044B03EB800252691844017F13780B4313707047BCF00000012809D8054B03EB800252691844017F137823EA43
:4018400001031370704700BFBCF0000038B572B6384A137843F00403137000240BE0364863001A19510001440A46898C106AFFF715FF0134E4B2082CF1D900240CE02E48EF
:40188000A20011194B000344B3F86020D96D986DFFF70AFF0134E4B2012CF0D927494FF09040FFF7C1FE0A24254B1C70254A137843F0020313701032137843F002031370F9
:4018C000214D2B7843F040032B70A2F58632513A137843F01003137008221C491C48FFF7E3FE22461B491C48FFF7DEFE22461B491B48FFF7D9FE22461A491B48FFF7D4FEDA
:4019000008221A491A48FFF7CFFE1A4A137843F008031370184C61232370FFF7C9FE81232370FFF79BFE0E2229461448FFF7BCFE38BD00BFE8460040BCF000006400004822
:401940008358004003500140A0430040B403004802510040BC030048C0510040C8030048F0510040D403004810510040E0030048325100402243004000480040B043004009
:4019800008B504F027FE03680C2B00D1FEE7FEE708B5094B1A681044084BC31AB3F5005F02DC054B186005E004F014FE0C2303604FF0FF32104608BDE485FF1F3892FF1FD9
:4019C00008B5104E104D16E029686B68AC68002204E051F8040B43F8040B0432A242F8D1E868002203E0002143F8041B04328242F9D11035013E002EE6D104F0F1FDFFF7A1
:401A0000C5F9FEE701000000F4F6000008B5104A104B1A60104A136843F40073136000230AE0032B03D80D4A52F8231000E00C490C4A42F8231001332F2BF2D90A4B1A7818
:401A40000A4B1A70074A0A4B1A60FFF7FFFE08BD0004FA050CED00E014ED00E000000000811900000080FF1FBC760040C080FF1F08ED00E0084A137843F060031370A2F588
:401A8000A652133A137843F0010313701032137843F001031370704777580040054B1A7802F0FC021A701A7800F0030010431870704700BF5858004008B50120FFF7EEFF6C
:401AC00008BD00BF08B5054B1B7823B90122034B1A70FFF7F1FFFFF7CDFF08BD808FFF1F084A137843F060031370A2F5A652133A137843F0040313701032137843F0040330
:401B00001370704777580040054B1A7802F0FC021A701A7800F0030010431870704700BF5C58004008B50120FFF7EEFF08BD00BF08B5054B1B7823B90122034B1A70FFF784
:401B4000F1FFFFF7CDFF08BD818FFF1F01BE704710B5044605E0084B186802F065FAA4F50044B4F5004FF6D8034B586800FB04F002F05AFA10BD00BFE885FF1F08B5034B2A
:401B80001B7A00FB03F002F04FFA08BDE885FF1F70B504460E46074B1D681F2802D90020FFF7D4FF04F01F04103455F8240045F8246070BD08ED00E038B504460D46072929
:401BC00002D90020FFF7C2FF1F2C02D90020FFF7BDFF04F01F0000F1604000F564406D01EDB2057038BD00BF134B1B78DBB20360124A127843EA02230360114A127843EA3A
:401C0000024303600F4A127843EA026303600E4B1B78DBB243600D4A127843EA022343600B4A127843EA024343600A4A127843EA02634360704700BF03010049040100491A
:401C4000EC460040020100490101004900010049050100490601004908B502F04BFA02F053FA08BD08B5FFF7F7FF08BD30B583B00C468DF8070002F087FAB4F5006F52D267
:401C80002509A4EB0514A4B202F052FB00284CD101230DF107022146402002F0A1FA044607282FD1234B1B7813F0020FFAD0214B1B7813F0020F06D01E4B1B789B0805D040
:401CC0004FF0FF3403E04FF0FF3400E00024E4B9194A537812782946402002F0E5FA072816D1144B1B7813F0020FFAD0114B1B7813F0020F0FD00F4B1B789B0810D04FF0AD
:401D0000FF340DE0012809D10AE04FF0FF3407E04FF0FF3404E04FF0FF3401E04FF0FF3402F02CFB02E0012400E00424204603B030BD00BF224700400C92FF1F38B5044699
:401D400002F07AF9054602F009FA04F1804000F500400478E4B202F00FFA284602F070F9204638BD08B502F0C5F9C0B208BD00BF38B504460D4602F007FA15F0800F48D116
:401D800002F0D6FA002846D110222146402002F063FA07282FD1214B1B7813F0020FFAD01E4B1B7813F0020F06D01C4B1B789B0805D04FF0FF3403E04FF0FF3400E00024AB
:401DC000E4B9174A537812782946402002F06CFA072816D1114B1B7813F0020FFAD00F4B1B7813F0020F0FD00C4B1B789B080DD04FF0FF340AE04FF0FF3407E04FF0FF3415
:401E000004E04FF0FF3401E04FF0FF3402F0B6FA02E0012400E00424204638BD224700400C92FF1F30B583B00D4614468DF8070002F0AAF915F0800F4CD10F2C4CD802F0A0
:401E400077FA00284AD101230DF107022146402002F0C6F907282FD1224B1B7813F0020FFAD0204B1B7813F0020F06D01D4B1B789B0805D04FF0FF3403E04FF0FF3400E0FC
:401E80000024E4B9184A537812782946402002F00BFA072816D1134B1B7813F0020FFAD0104B1B7813F0020F0FD00E4B1B789B080DD04FF0FF340AE04FF0FF3407E04FF0BE
:401EC000FF3404E04FF0FF3401E04FF0FF3402F055FA04E0012402E0012400E00424204603B030BD224700400C92FF1F7222074B1A70202201331A700622623B1A7047221A
:401F000010331A7000224F331A7070478A65004010B502F091F804460A4A137843F0200313700132137843F010031370033A137843F01003137001F071FA204602F080F83A
:401F400010BD00BF9A65004008B5054B1B7823B9FFF7CCFF0122024B1A70FFF7D9FF08BD828FFF1FF8B502F067F80746404A137843F0010313701032137843F001031370FC
:401F800001263C4B1E700225943B1D7002F5E2521B32137803F07F0313700020FFF7EEFD354C237803F0F9032370344A137803F0DF0313702378334323703046FFF7DEFD7C
:401FC0002820FFF7DBFD2E4B1A7802F07F021A701A7802F0BF021A7023782B4323702846FFF7CCFD237843F0040323700024254B1C7001331C70384602F022F807211720FA
:40200000FFF7DAFD20491720FFF7C2FD07211820FFF7D2FD1D491820FFF7BAFD07211520FFF7CAFD1A491520FFF7B2FD07212046FFF7C2FD17492046FFF7AAFD0721304673
:40204000FFF7BAFD14493046FFF7A2FD07212846FFF7B2FD11492846FFF79AFD07210C20FFF7AAFD0E490C20FFF792FDF8BD00BFA54300409D600040944300401260004020
:40208000F851004084600040C52A0000AD280000C12A0000212A0000512A0000852A0000CD2A000008B5214B18700023204A1370204A1370204A1370204A1370204A1370E3
:4020C000204A1370204A1370204B4FF400021A604FF080721A604FF400121A6001221A6002221A6004221A6011B1012906D00BE0174A137803F0FE0313700AE0144A1378A4
:4021000043F00103137004E0114A137843F00103137003220F4B1A708022203B1A70012001F082FF04220C4B1A7008BD5A91FF1FD991FF1F6691FF1F6991FF1F6891FF1F9D
:40214000DC91FF1FD891FF1F6791FF1F00E100E009600040286000401260004038B504460D46064B1B7823B9FFF7FCFE0122034B1A7029462046FFF795FF38BD848FFF1F99
:4021800000230A4A13700A4A13700A4A13700A4A13700A4A13700A4A13700A4A13700322094B1A708022203B1A707047D991FF1F6691FF1F6991FF1F6891FF1FDC91FF1F83
:4021C000D891FF1F6791FF1F28600040014B1878704700BF6991FF1F064B1B7813F0FF0F05D0044B1878C0B200221A7070470020704700BF6691FF1F00EB40008300024AED
:4022000013445878704700BF6C91FF1F431EDBB2072B0BD8064B00011A18185C00F00F00537843EA0020023880B2704700207047FC5F0040431EDBB2072B3CD8F0B407461A
:4022400000EB4004A3001C4C2344DB889BB2C3F500739A4208D900EB400293002344DA8892B2C2F5007292B200EB4004A300124C2344DB7843EA1223104D04012E192B5576
:40228000D3B2737039B909E0CE5C3D010C4C665501339BB200E000239A42F5D8420002449300054A134400225A705A79D2B20001044B1A54F0BC70476C91FF1FFC5F004058
:4022C00078600040FE5F0040431EDBB2072B0BD8420002449300054A134400225A705A79D2B20001024B1A54704700BF6C91FF1FFE5F004070B5D9B1054614460E46C8B117
:40230000082819D8FFF782FFA04203D22846FFF77DFF0446002305E02901094A525CF25401339BB2A342F7D32846FFF7CDFF04E0002402E0002400E00024204670BD00BFE7
:402340007860004010B4FF2400230EE0094AD25C02EB42029100084A11448A7AD2B2824201D11C4602230133DBB2012BEED9204610BC70474091FF1F6C91FF1F10B5204CE6
:402380002079FFF7DFFF237813F0800F0ED06378DBB2212B2FD11B4B07221A80C0EBC000194A1044586000F0EFFA10BD144B5B78DBB2202B02D0222B10D01EE0114A0723BC
:4023C0001380C0EBC00310490B4453600F4A135C43F00103135400F0FFFA10BD084B9B780B4A22F81030094A135C43F00203135400F088F910BD002010BD002010BD00BF18
:4024000000600040E091FF1FF885FF1F5491FF1F4491FF1F10B500241F4B1C701F4B1C705C700AE01E4B185DC0B2431EDBB2072B01D8FFF749FF0134E4B2012CF2D9194BA3
:402440001B7813F0FF0F1AD0154B1B7813F0FF0F17D0154B1B7813F0FF0F14D0114B1B78DBB2082B11D80E4B1B78DBB2082B0ED80D4B1B78DBB2082B0BD8002010BD012035
:4024800010BD012010BD012010BD012010BD012010BD012010BD00BF858FFF1F5491FF1F4891FF1F5091FF1F4091FF1F70B506460D460F4B1B780F4AD45CE4B204EB4402CB
:4024C00093000D4A13441B899BB28B4209D204EB44029300084A13441D89ADB20020FFF735FB2A4631462046FFF7A4FE70BD00BF858FFF1F5091FF1F6C91FF1F08B5034B1E
:402500001B78034AD05CFFF777FE08BD858FFF1F4891FF1F08B5034B1B78034AD05CFFF76BFE08BD858FFF1F5091FF1F08B5084B1B78084AD35CDBB203EB43018A0006490E
:402540000A44128992B201461846FFF7D3FE08BD858FFF1F4891FF1F6C91FF1FC37803F0030390F9020000280FDA032B06D002F001030B48C15442F001020EE0C2F380032C
:402580000848C15442F0040207E0032B05D0C2F340030548C15442F002021046704700BF5091FF1F4091FF1F4891FF1F1D4B19781D4A13889BB20B449BB2138000220FE0CB
:4025C0001A494B681B78DBB2194883544B6801334B600132D2B20B889BB2013B9BB20B80124B1B889BB20BB1072AE9D90D4B1B78DBB2082B00D05AB10E490B7883F08003DE
:402600000B700F210C4B197002210C4B197004E0022309490B7009490B70094B1A70014B1A7070476791FF1FDA91FF1FE091FF1F006000405B91FF1F6091FF1FD991FF1F8F
:40264000DD91FF1F0222074B1A708022064B1A700F22064B1A700023054A1370054A137001207047D991FF1F5B91FF1F6091FF1F6791FF1FDD91FF1F08B5FFF797FF08BD55
:4026800010B4194B197801F00F010239C9B2174A13889BB20B449BB21380002011E0144A5468144B1B5CDBB223705368013353600130C0B20139C9B213889BB2013B9BB2A6
:4026C00013800B4B1B889BB20BB10029E7D10A4B19700A4A137883F0800313700B22084B1A7010BC704700BF29600040DA91FF1FE091FF1F00600040DD91FF1F5B91FF1FCB
:402700006091FF1F0623064A1370064A13708022054B1A700022054B1A700120704700BFD991FF1F6091FF1F5B91FF1FDD91FF1F064B9B6843B1054B9A6810709A68044916
:402740000988518000229A60704700BFE091FF1FDA91FF1F08B5134B1A78D2B21A701B78DBB213F0800F02D00F4A137008BD0220FFF7DEFF0D4B1B7803F06003202B05D017
:40278000402B06D043B900F093FC06E001F026FE03E000F037FE00E0002010B90322024B1A7008BD286000406091FF1F0060004008B5094B1978094A13889BB20B449BB2E0
:4027C00013800022064B1A700120FFF7B1FF0322044B1A7008BD00BF6791FF1FDA91FF1FD991FF1F6091FF1F08B50B4B1B78DBB2042B06D0062B07D0022B0BD1FFF7D8FFB4
:4028000008BDFFF73DFF08BD0320FFF791FF0322024B1A7008BD00BFD991FF1F6091FF1F08B50022044B1A700120FFF781FF0322024B1A7008BD00BFD991FF1F6091FF1FB6
:4028400008B50B4B1B7813F0FF0F07D0084A137843F0800307490B70002313700022064B1A700120FFF764FF0322044B1A7008BDDC91FF1F08600040D991FF1F6091FF1FC2
:4028800008B5094B1B78DBB2042B06D0062B07D0022B07D1FFF7F0FE08BDFFF7C1FF08BDFFF7CEFF08BD00BFD991FF1F08B5284B1B78DBB213F0100F48D013F0800F0CD0EA
:4028C00003F00F03012B16D1FFF744FF214B1B7813F0800F11D1012312E013F0400F03D0FFF7CEFF01230BE013F0200F07D0FFF77BFF012304E0002302E0002300E000235B
:4029000023B3134B1B7813F0800F1FD1124B1B78124A12781343124A13701278D2B2934214D10C4B1B78DBB2094A127812F0800F07D1084B1B78DBB2054A1370137803F0FB
:402940000F03044A1278D2B29342EAD108BD00BF286000406091FF1F5B91FF1FDD91FF1F296000400022064B1A80064B9B682BB1044A916800230B7092685380704700BF3A
:40298000DA91FF1FE091FF1F08B50F4B1B889BB213B9FFF757FE15E002220C4B1A7000220B4B1A70FFF7DEFF0A4AD179937943EA0123054A128892B2934201D2024A138063
:4029C000FFF7F4FD012008BDE091FF1FD991FF1F5B91FF1F0060004008B504220B4B1A7080220B4B1A70FFF7BDFF0A4AD179937943EA0123084A128892B2934201D2064A2F
:402A000013800B22054B1A70012008BDD991FF1F5B91FF1F00600040E091FF1F6091FF1F0122094B1A700F3B9B7C084B1B7B03F00303934204D0054AD37B83F08003D37380
:402A40000122024B5A7370470B6000406C91FF1F02220A4B1A700F3B93F82230084B1B7E03F00303012B04D0054AD37E83F08003D3760122024B5A76704700BF0B6000404D
:402A80006C91FF1F04220C4B1A700F3B93F832300A4B93F8243003F00303012B06D0074A92F8273083F0800382F827300122034B83F82520704700BF0B6000406C91FF1F28
:402AC000704700BF08B5FFF75BFB08BD08B500F0B3FC08BD70B588B0054603AC174E0FCE0FC43368237035B322232B7003236B7001A8FFF779F8002402231AE008AA2244A3
:402B000012F81C2C08A901EB121111F8141CE954581C00212954981C02F00F0208AE324412F8142C2A54DA1CA9540134E4B20433DBB2212BE2D908B070BD00BF28F100000A
:402B400010B401233EE019461A010C242148845403EB4300820020480244527912F0FF0F13D003EB430082001B480244127912F0800F04D01801194A024494700AE0180130
:402B8000164A02440820907004E01801134A0244802090704800084482000F480244D488E4B208010B4901448C71D088C0F30720C871D088C0B20871D288C2F307224A7122
:402BC0000133DBB2082BBED9FF22054B1A7010BC704700BF706000406C91FF1FFC5F00400A600040074B1A78074B03EBC2035B681A7C824204D9C0001030184440687047FF
:402C0000002070475A91FF1F3CF10000F8B5404B1B7813F0FF0F79D03D4B18780138C0B2FFF7E0FF047AC2683A4B1878C0B200236AE01178884264D13749095CC9B2557879
:402C4000A9425ED1917801F07F01D67806F00306DFF8C8E04D000D44AF000EEB07054FF0000C85F803C092F802C085F804C092F803C00EF807C097882F8192F90250002D97
:402C80000DDA012E01D1072700E00D274E000E44B500224E35446F7101266E700CE0012E01D1052700E009274E000E44B5001B4E35446F7100266E70DFF868E00F010EEB5B
:402CC00007060125B57001FA05F529448D00134929440D89C5F307250EF807500D89EDB27570CE88F6B20E4D3D44AE71CE88C6F30726EE71CE88F6B22E71C988C1F3072175
:402D0000697108320133DBB2A34292D3F8BD00BF6991FF1F6891FF1FEC91FF1F6C91FF1F70600040FC5F0040034B1A78034B03EBC2035868704700BF5A91FF1F3CF1000023
:402D400008B5084B18780138C0B2FFF74BFF30B142681279023200EBC203586808BD002008BD00BF6991FF1F2DE9F047002310E0724D5900CA189600AC190022AA55A270A5
:402D8000E2702281A272627034462C4462710133DBB2082BECD940B90AE000226849CA546849CA540133DBB200E00023012BF4D9654B1B7813F0FF0F00F0BD80624B1878A4
:402DC0000138C0B2FFF70EFF80464368DB7913F0400F05D05D4A137843F00103137004E05A4A137803F0FE03137098F808704FF0000A01266FE0D8F80C50002467E0AB7842
:402E000003F07F039E425FD1314606EB460083004A4803441B899BB2A888834206D206EB460E4FEA8E03454A134418812B784448C35CDBB26878834246D195F802C0DFF8FA
:402E4000FCE04B000B4498000EEB000383F804C0EB780EF80030EB7803F0030395F90200002813DA012B02D14FF0070901E04FF00D09DFF8C8E04B0003EB010C4FEA8C0061
:402E8000704480F805900121417012E0012B02D14FF0050901E04FF00909DFF8A0E04B0003EB010C4FEA8C00704480F8059000214170AB790A2B01D0022B05D152463146DD
:402EC0002846FFF74BFB824608350134E4B2BC4295D30136F6B2082E8DD9D8F80C0000220CE0837803F07F0310F8084B03EB43039900124B19448C720132D2B2BA42F0D3C7
:402F0000FFF71EFF124B1860002301210FE00B4D4A00501884002C44E380228992B213449BB203F0010213449BB20131C9B20829EDD9FFF705FEBDE8F08700BF6C91FF1F54
:402F4000EC91FF1F6491FF1F6991FF1FD891FF1F5C91FF1F08B5154B1B7903F07F035A1ED2B2072A20D8590019448A0010490A44917841F0010191700021D170517841F02E
:402F800002015170127912F0800F05D01B01094A1A448D23937004E01B01064A1A4489239370FFF7AFFB08BD002008BD006000406C91FF1FFC5F0040274B1B7903F07F0364
:402FC0005A1ED2B2072A44D810B5590019448A0022490A44917801F0FE0191700021D1701F4C1801215C01F07F012154517801F0FD015170127912F0800F13D003EB4301DD
:403000008A0016490A445278D2B2012A04D1224602440C23937019E01B01114A1A440D23937013E003EB43018A000C490A445278D2B2012A05D11B01094A1A44082393708E
:4030400004E01B01064A1A4409239370FFF75AFB10BD0020704700BF006000406C91FF1FFC5F004010B50E4B1C79E4B20D4B18780138C0B2FFF7B6FD43681B799C4201D9F3
:40308000022C0AD8084A135DDBB208490B55044B9B78DBB21355012010BD002010BD00BF006000406991FF1FEC91FF1F6491FF1F10B59C4B1B78DBB200219B4A118013F043
:4030C000800F00F0AD80974A5278D2B20A2A00F27481DFE812F06900720172017201720172010B007201920072019A008D4BDB78DBB2012B09D1FFF717FE42688A4B5A604A
:4031000012221A80FFF740FC10BD864BDB78DBB2022B13D1834B9878FFF764FD002800F04E814268804B5A605A68D1785A68927842EA01221A80FFF727FC10BD794BDB78F8
:40314000DBB2032B05D02CE00A7811440133DBB201E000237549734A9278D2B2934203D20A7812F0FF0FEFD16E4B9B7813F0FF0F0BD06C4B9B78DBB26D4A127C934204D114
:403180006C4C2046FFF7A6FC21460B7813F0FF0F00F017810B78644A13805160FFF7F4FB10BD01F01BF910BD13F0030317D0022B40F009815C490B805A4B1B7903F07F0328
:4031C00003EB43039A005C4B1A449278D2B25B4B1A7000225A704B60FFF7D6FB10BD524902230B80564B1A78D2B2544B1A7000225A704B60FFF7C8FB10BD4B4B01221A8078
:40320000504A5A60FFF7C0FB10BD474A01231380444B1B794C490B445360FFF7B5FB10BD404A5278013A0A2A00F2CF80DFE812F04C00CD009800CD000B00CD00CD00CD008A
:403240001300CD003000374B9B78DBB23F4A1370FFF758FA10BD334B9B7803F0FF041BB1601EC0B2FFF7BEFC04B110B9002C40F0AE80344B1B78DBB29C4206D0314B1C70A5
:403280000120334B1870FFF76FFDFFF73BFA10BDFFF7E8FE002800F09C80224A1379DBB21279D2B22B490A702B4AD25CD2B22649CB5CDBB29A4204D00122254B1A70FFF7EE
:4032C000A5FCFFF71FFA10BD03F00303012B17D04BB1022B7FD1134B9B7813F0FF0F7CD1FFF76AFE10BD0F4B9B78DBB2012B76D1134A137803F0FD031370FFF703FA10BD47
:40330000084B1B79DBB2012B6BD8064B98781B79DBB21249CA5C22EA0002CA54FFF7F2F910BD00BF00600040E091FF1FA4F100009CF200001092FF1F6C91FF1F888FFF1FAC
:40334000D891FF1F6991FF1FEC91FF1FDC91FF1F6691FF1F6891FF1F6491FF1F5891FF1F03F00303012B17D04BB1022B3BD1224B9B7813F0FF0F38D1FFF7ECFD10BD1E4B52
:403380009B78DBB2012B32D11C4A137843F002031370FFF7B7F910BD174B1B79DBB2012B27D8154B98781B79DBB21549CA5C22EA0002CA54FFF7A6F910BD002010BD0020C1
:4033C00010BD002010BD002010BD002010BD002010BD002010BD002010BD002010BD002010BD002010BD002010BD002010BD002010BD002010BD00BF00600040D891FF1F11
:403400005891FF1F044B1B7813F0800F01D0024B5B780020704700BF00600040054A137843F0020313701032137843F002031370704700BFA2430040024B1878C0F3801012
:40344000704700BF8F45004010B50446054B1878FF2801D0FEF7C0F92046FEF7A3F9014B1C7010BD1286FF1F10B59DF80840012C51D1013809282ED8DFE800F0052D2D055F
:403480002D2D0F192D230F2B03D92548007840B222E02448007840B21EE00F2B03D92248007840B218E02148007840B214E00F2B03D91F48007840B20EE01E48007840B229
:4034C0000AE00F2B03D91C48007840B204E01B48007840B200E0002001EB401101FB02F1C90B8AB20D2B0BD8C3F10E0289B211418AB2611E124800EB810101338B7005E00F
:40350000631E0F4901EB83030F219970013C0C4B23F8242010BD0020FEF718FB10BD00BF180100491C010049190100491D0100491A0100491E0100491B0100491F01004967
:403540008C8FFF1FF8B5074600F076FD06460D4D2B7843F003032B700B4C237843F0030323700A4B1F700320FEF708FB2B7803F0FC032B70237803F0FC032370304600F025
:403580005FFDF8BDF8460040F9460040925800400022314B1A7101285DD170B574222F4B1A70002402331C70092201331A707F232B4A13700132147001321370294B1C70BF
:4035C00001331C7001331C7001250A331D70502203F527631A700A2201331A702C2201331A7001331C70442203331A70482201331A7001331D70022602331E7012220133C5
:403600001A70282201331A70EB2201331A705220FFF798FF4722144B1A7001331C70052205331A7001331E7001331C7001331C70204600F09BF90D4A0D4B1A60294603204C
:4036400000F0B8F929460F2000F038FA09491D20FEF79EFA70BD70478C8FFF1F004E0040044E0040084E00409458004033330300F091FF1F49390000F0B583B0274D0127D0
:403680002F70274E00247471102000F081F9102000F002FA07211D20FEF78EFA0422214B1A7001331C7007331C701F4A137843F0180313701D4B1C7003F2F5231C7001332D
:4036C0001C700A22A3F209331A7001331C7002331C705B2205331A705E2201331A7004331C701423124A137000974FF4004248F6F0510220FFF7B8FE2B78013B06EB830321
:403700009A780C4B1A702B78013B36F823200A4B1A802878FFF73CFF03B0F0BD1386FF1F8C8FFF1F96580040075B004093580040014E00400E4E00400C4E004070B500F061
:403740007BFC06462A4B1B782A4B1A7842F001021A701A7842F010021A7010331A7842F001021A701A7842F010021A70224D2B7843F002032B70214C237843F002032370AC
:403780001F4A137843F0030313700320FEF7F6F92B7803F0FD032B70237803F0FD032370184A137843F0060313707A22164B1A70164A137843F0010313701032137843F028
:4037C000010313700F3A137843F0010313701032137843F0010313704FF000530C4A1360A2F5C0721360304600F02AFC70BD00BF1386FF1FAA430040F8460040F94600403D
:40380000915800407758004082580040A143004080E200E008B5084B9B794BB9064BDB7913F0FF0F01D1FFF727FF0122024B9A71FFF784FF08BD00BF8C8FFF1F024A13787C
:4038400043F0010313707047004E0040024A137803F0FE0313707047004E0040094B1B7913F0FF0F03D0074B5B79DBB203E0064B1B7803F00103012B01D00028EED0184638
:40388000704700BF8C8FFF1F014E0040154B1B7803F00303012B07D8134B1888023B1B889BB243EA004013E0022B0AD10E4B1888023B1B7843EA00430C4A107843EA0020DC
:4038C00006E00B4B188883B2074A108843EA0040084B1B7913F0FF0F02D00022054B5A71704700BF144E0040124E0040114E0040104E00408C8FFF1F10B5074B9B68C01A38
:4039000002F046FC0446054B186802F041FC0146204602F045FD10BD8C8FFF1FF091FF1F10B5084A137843F004031370FFF786FF0020FFF793FFFFF7A9FF0446FFF786FF9F
:40394000204610BD014E0040704700BF10B5002404E02046FDF76AFF0134E4B2012CF8D9FF22014B1A7010BD1486FF1F10B50446FFF7ECFF2046FDF74BFF014B1C7010BD01
:403980001486FF1F014B188880B2704780400040034B1A7800F0F80010431870704700BF82400040024B187800F00700704700BF8240004070B505460E46FFF7F3FF04461D
:4039C000FFF7E0FFA84256D02B4B1B7803F0010294B900B185B938B9284B1D80284A137803F0BF03137070BD254A137843F040031370224B1D8070BD22B3002321490B703D
:403A000001240F310C7004310B700C390B7803F07F030B701A4B1B7813F0080F00D08DB9194B18800721013B1970164B1B7813F0010FFAD110490B7803F0FE030B700021EE
:403A4000104B19700C4B1B7813F0010F0DD00E4B1D800EB1032200E001220A4B1A70094B1B7813F0010FFAD170BD044B1D8002490B7813430B7070BDA243004080400040FD
:403A8000824000400140004002400040014B188880B2704700410040034B1A7800F0F80010431870704700BF02410040024B187800F00700704700BF0241004070B50546D2
:403AC0000E46FFF7F3FF0446FFF7E0FFA84256D02B4B1B7803F0010294B900B185B938B9284B1D80284A137803F0BF03137070BD254A137843F040031370224B1D8070BD93
:403B000022B3002321490B70012413310C7004390B7008390B7803F07F030B701A4B1B7813F0080F00D08DB9194B18800721013B1970164B1B7813F0010FFAD110490B7898
:403B400003F0FE030B700021104B19700C4B1B7813F0010F0DD00E4B1D800EB1032200E001220A4B1A70094B1B7813F0010FFAD170BD044B1D8002490B7813430B7070BD91
:403B8000A14300400041004002410040014000400240004038B50622114B1A7081220E3B1A70082202331A700F2511331D70002401331C704FF400420A4B1A6007212846AD
:403BC000FDF7FAFF08492846FDF7E2FF1022074B1A70074B1C70074B1C70074B1C7038BDD649004080E100E0493C0000F491FF1FF891FF1FFA91FF1FFB91FF1F08B500F038
:403C00001BFA064A137843F0040313701032137843F00403137000F013FA08BDA543004008B5074B1B7823B9FFF7B4FF0122044B1A70FFF7E3FF4FF40042024B1A6008BD57
:403C4000988FFF1F00E100E038B5A54B1C78A54B1B7813F0400F00F03A81E4B214F0010F00F01D819F4B1B78453B052B00F21481DFE813F006008200120112010600DF0004
:403C800004F0DF0504F00A04082C42D1954B1B78DBB2452B35D1944B1B7813F0FF0F10D0924B1B681B78DBB2914A137004228C4B1A7001228F4B1A7046228A4B1A702C46E5
:403CC000EDE08D4B1B7813F0020F0DD08B4A137843F00A0313706022824B1A704FF40042874B1A602C46DAE0864A137843F0100313701022844B1A700422023B1A702C4694
:403D0000CDE00022764B1A704A22764B1A702C46C5E00A2C2BD1794A137843F0A0031370754B1B7813F0020F14D06E4B1B7813F0080F01D0092300E00A23704A11780B4376
:403D400013706022674B1A704FF400426C4B1A602C46A4E06B4A137843F0100313701022694B1A700422023B1A702C4697E00020FDF7ECFE2C4692E014F0020F36D15D4B61
:403D80001A78D2B2584B1B78DBB29A4210D2594A1378DBB255490968CB5CDBB254490B7004214F4B197013780133DBB2137076E0514B1B7813F0020F0CD0504A137843F0F2
:403DC0000A0313706022474B1A704FF400424C4B1A6064E04B4A137843F0100313701022494B1A700422023B1A7058E0424B1B7813F0020F0CD0414A137843F09A031370E4
:403E00006022384B1A704FF400423D4B1A6046E03C4A137843F01003137010223A4B1A700422023B1A70354A137843F09003137035E0364A1378DBB2354908682C4909785A
:403E4000C9B2C15413780133DBB213701278D2B2304B1B78DBB29A4203D21022204B1A701DE0254B1B7813F0020F0CD0234A137843F00903137060221A4B1A704FF40042C2
:403E80001F4B1A600BE01F4A137843F0100313700022134B1A7002E00020FDF757FE14F0200F1CD00F4B1B7813F0080F01D0012300E00223114A11780B431370114A137866
:403EC00003F0EF0313701022064B1A7038BD054B1B7813F0100F02D11022024B1A7038BDD7490040F491FF1F0092FF1F0492FF1FD8490040FB91FF1FF991FF1FF891FF1FC1
:403F000080E100E0D6490040D9490040FA91FF1FFC91FF1F0892FF1F1A4B1B78DBB2102B29D1194B1B7813F0080F26D14FF40042164B1A604000C0B229B140F00100492229
:403F4000104B1A7002E045220E4B1A70104B1870012201331A700F4B1B7813F0010FFAD00C4B1B7803F00A030A2B08D11022054B1A700320704702207047012070470020F3
:403F8000704700BFF491FF1FD949004080E100E0D8490040D74900400A4B1B7813F0040F0ED01023074A13700421023A1170064A1370064B1B7813F0210FFAD00020704734
:403FC00002207047D9490040F491FF1FD7490040114B1B7813F0040F1BD0104B18700422013B1A7046220E4B1A700E4B1B7813F0010FFAD00B4B1B7813F0020F04D160225C
:40400000074B1A70002070476022054B1A70032070470220704700BFD9490040D8490040F491FF1FD74900400230800803D000BF01380046FCD17047EFF3108072B6704799
:4040400080F31088704700BF10B500F09DF800F06FF910BB012000F04DF9072818D102210F4800F0A3F802280AD102E00120FDF785FD0C4B1B7813F0020FF7D0002409E08E
:40408000084B1B7813F0020FE9D04FF0FF3401E04FF0FF3400F072F900E00424204610BD0C92FF1F2247004010B500F06DF800F03FF9D0B900F07EF90446072812D102E01D
:4040C0000120FDF75BFD0A4B1B7813F0020FF7D0074B1B7813F0020F04D0054B1B789B0800D1002400F04AF900E00424204610BD2247004008B5FFF7D7FF034610B9FFF7A0
:40410000A3FF0346184608BD08B5FFF795FF0F4A137843F0080313701032137843F008031370C8220A4B1A700A4A137843F0100313701032137843F010031370064B1B780C
:4041400013F0200FFAD0FFF77BFF08BDA043004001470040AC43004000470040054A137843F001031370034B1B7813F0020FFAD0704700BF02470040024A137803F0FE0390
:40418000137070470247004008B5FFF755FF064A137843F0080313701032137843F008031370FFF74DFF08BDA043004070B506460D4600240CE00120FDF7E0FC064B1B7838
:4041C00013F0010FF7D0054B1B7833550134E4B2AC42F3D3204670BD224700402047004030B43E2801D81F2B03D93F2827D90F2B27D8174C247814F0020F24D0154CB625EB
:404200002570D4252570012525700234247814F0020F1AD10F4C2070C1F300202070C9B22170591EC9B22170002104E0545C094804700131C9B29942F8D3072006E00120F5
:4042400004E0012002E0042000E0092030BC70472247004020470040114B1B7813F0020F19D010B40F4BB6241C70D5241C7002241C7002331B7813F0020F0ED1094B1870F9
:40428000002304E0CC5C0748047001339BB29342F8D3072002E004207047092010BC7047224700402047004030B4104C247814F0020F15D00E4CB6252570D82525700525AF
:4042C00025700234247814F0020F0BD1084C2070080A2070C9B2217022702370072002E0042000E0092030BC704700BF22470040204700400C4B1B7813F0020F0FD00B4B94
:40430000B6221A70E1221A700E221A7002331B7813F0020F05D1054B187007207047042070470920704700BF224700402047004010B5FFF781FE0F4B1B78A3B901220D4BA4
:404340001A700D4B1B6813F0010F0ED00A4A136823F00103136000BF00BF00BF0122054B5A60002402E0042400E00024FFF768FE204610BD9C8FFF1F0400084008B5FFF71B
:404380005BFE0A4B00221A705B68012B0AD1084A136843F00103136000BF00BF00BF0022024B5A60FFF74CFE08BD00BF9C8FFF1F04000840074B1B7813F0020F08D0064B81
:4043C000B6221A70E0221A700D221A700720704704207047224700402047004008B5144B1B7803F00303012B02D0022B04D00FE00F4B1B79DBB20CE00D4B1B7903F07F03AF
:4044000003EB43039A000B4B1A44937ADBB200E00023022B07D8084A1268D35C022B04D1FDF7ACFF08BD002008BD002008BD00BF006000406C91FF1F5C91FF1F2DE9F04F4C
:404440008DB006460F4614461D4600F0EDF9DFF81093CDE9000199F90080B8F1FF3F46D022462B462046294601F072FD834600283DD132463B463046394601F069FD824671
:40448000002874D1304639460022002301F02EFD002833D0002200232046294601F026FD8346B8B1A94A012300200021CDF828A0CDE90467CDE90645CDE9080103920293BE
:4044C000B8F1000F6CD0A24B0022104619460DB0BDE8F08F2046294600F0D0FF38B1002200232046294601F00BFD00286AD1DDE90023104619460DB0BDE8F08FDDE90001EA
:4045000000F0BCFF804600287DD0DDE900014FF0000A4FF0000B52465B4601F0E7FC0028E5D03046394600F0A9FF0028DFD02046294600F0A3FF0028D9D099F90030834828
:4045400004210022022BCDE90467CDE90645CDE908AB039002910A9204D002A800F094FF002847D102F036F82223036042E0002200232046294601F0B9FC0028B7D0744B21
:40458000724800220121B8F1020FCDF828B0CDE90467CDE90645CDE9082303900291A8D002A800F071FF00287ED00A9B43B302F011F8DDE908230A990160104619460DB088
:4045C000BDE8F08F614999F900300122CDF828B0CDE90467CDE9064503910292002B68D05C490020022BCDE9080166D101F0F2FF212303600A9B1BB101F0ECFF0A9B0360F8
:40460000DDE9082375E73046394600F037FF00283FF47BAF2046294600F030FF00283FF474AFDDE900231046194601F091FC00286FD1464B99F90080039303230A90CDE9E8
:404640000467CDE906450293B8F1000F3BD1DFF814B14FF0604A0022002330463946CDE908AB01F04DFC00283FF477AF00223A4B2046294601F0D2F904460D4600F00CFFC2
:4046800002460B462046294601F030FC00283DD1324B4FF06042CDE9082399F90080B8F1020F7FF45AAF5DE701F094FF212303607BE700230024CDE9083402A800F0E4FE2C
:4046C000002897D192E7DFF8A0B04FF0000A0022002330463946CDE908AB01F011FC0028DDD000221C4B2046294601F097F904460D4600F0D1FE02460B462046294601F031
:40470000F5FB18B9134B0022CDE9082399F90080C5E70E4A99F900900123CDF82880CDE90467CDE9064503920293B9F1000FC0D0002200231046194601F09AFAB9F1020FBF
:40474000CDE908013FF452AFB7E700BFB0F200000000F03F0000F0FF0000E03FFFFFEFC71586FF1FFFFFEF470000F07F2DE9F04F8BB004460D4600F0B9FD284B064693F9DC
:4047800000A00F46BAF1FF3F12D022462B462046294601F0DDFB834650B94FF000084FF000092046294642464B4601F0A9FB20B9304639460BB0BDE8F08F194A0123CDF8E5
:4047C00020B0CDE90445CDE9024501920093BAF1000F15D042464B464046494601F048FABAF1020FCDE906010CD101F0F3FE21230360089B63B9DDE906010BB0BDE8F08F7D
:40480000CDE90689684600F03FFE0028F1D1ECE701F0E0FE089B0360EDE700BF1586FF1FB4F20000000000002DE9F04F23F0004858EA020993B03CD0714C21F00046A6428C
:4048400083460D460CDD06F1404606F5801656EA0B0038D183466B49584613B0BDE8F08F9A4696462BD0A045EDDC654CA04578D0002D0F468146CDE9002376DB0024BEF146
:40488000000F27D15E4B984500F08B805D4B984552D0BAF1804F00F0C9835B4B9A4519D1002D17DB4846394613B0BDE8F04F00F01DBDCB465846534913B0BDE8F08F0028AD
:4048C000C1D1B045D1DD514813B0BDE8F04F00F0DDBD00244846394600F0CCFDBBF1000F1CD0ED0F013D54EA050370D0484B984540F3948003F10473984540F30D84454B15
:404900009E4270DDBAF1000F70DD3BA3D3E900231046194601F082F883469DE726B1394B25F040429A42DCD1BAF1000FC0F2B783002D08DB83468FE7BAF1000FC0F25E845B
:40494000CB46394688E706F1404606F5801656EA040300F08384012CECD101F1004183467AE7BEF1000F83D06DE72B4B98452CDCA3F15473984581DD4FEA2853A3F2FF33D4
:40498000142B40F35384C3F134032EFA03F202FA03F39E457FF472AF02F00102C2F102046DE706F1404303F5801353EA0B0300F03A83184B9E4240F36783BAF1000F15DB34
:4049C000DDE900349B46214646E7022457E74A4648463B46394600F06DFE02460B4601F047F9834638E7BAF1000F8EDB4FF0000B594631E7AFF300809C7500883CE4377E05
:404A00000000F07F0000F03F0000E03F00EB00000000E041FFFFEF3FFFFF3F43B6F5801F4FF0000205DAD04B00F0F8FF0E466FF03402DFF844E33315C6F31306A3F2FF33CD
:404A400046F07F57764503EB020A47F4401740F3C983C64B00229E4240F304840023CDE90823CDE90C23C24B0022CDE906230AF1010AA7F5801700263946DDE90623CDE91C
:404A80000A0100F017FEDDE9062380468946DDE90A0100F011FE02460B460020B44901F0E7F80A4601461346CDE90E1202464946404600F0B3FF8C4683467B1043F000539B
:404AC00003F5002399190020CDE904BC06460F464FF0000B6146584632463B46CDE910BCCDE9020100F09AFF02460B464046494600F0E0FDDDE90623804689463046394672
:404B000000F0D8FD02460B46DDE90A0100F0D2FDDDE9022300F082FF02460B464046494600F0C8FDDDE90E2300F078FFDDE90478CDE906013A4643463846414600F06EFF00
:404B400077A3D3E9002306460F4600F067FF76A3D3E9002300F0B0FD32463B4600F05EFF73A3D3E9002300F0A7FD32463B4600F055FF71A3D3E9002300F09EFD32463B462D
:404B800000F04CFF6EA3D3E9002300F095FD32463B4600F043FF6CA3D3E9002300F08CFD3246804689463B463046394600F036FF02460B464046494600F030FFDDE9022356
:404BC00006460F46DDE9040100F076FDDDE9062300F024FF32463B4600F06EFDDDE902678046894632463B463046394600F016FF0022604BCDE90A0100F05EFD42464B46E7
:404C000000F05AFDDDE910BC0F46DDE902015A463B46CDE90EBC5E4600F000FF0022CDE90201544B3046394600F044FDDDE90A2300F040FD02460B464046494600F03AFDB4
:404C4000DDE9042300F0EAFE324680468946DDE906013B4600F0E2FE02460B464046494600F02AFD8046894602460B46DDE9020100F022FDDDE90EBC35A3D3E90023584694
:404C8000CDE906BC5E460F4600F0C8FEDDE90223CDE904013046394600F00CFD02460B464046494600F006FD2BA3D3E9002300F0B5FE2BA3D3E90023804689463046394611
:404CC00000F0ACFE02460B464046494600F0F4FCDDE90C2300F0F0FC80465046894600F037FE06460F46DDE9040142464B4600F0E3FCDDE9082300F0DFFC32463B4600F072
:404D0000DBFCDDE906BC324658463B46DA468B4600F0D0FCDDE9082330E000BFAFF30080EF4E454A287ECA3F65DBC9934A86CD3F01411DA96074D13F4D268F515555D53FFE
:404D4000FFAB6FDBB66DDB3F033333333333E33F000000E009C7EE3FFD033ADC09C7EE3FF5015B14E02F3EBE0000404379B60B000000F03F000008408E98030000F09AFC9B
:404D8000DDE9042300F096FC02460B464046494600F090FC80468946DDE90012013C54EA050314BFD64CD74C0023CDE904340B461446CDE9023400230293DDE90245084697
:404DC0002B461146224600F075FC52465B4600F025FEDDE9002306460F464046494600F01DFE02460B463046394600F065FC06460F4622462B4650465946CDE9006700F091
:404E00000DFE0B460246804689463046394600F053FCBD4B064699420D460C4640F30E8101F13F4303F5E003034340F0F081A0A3D3E90023DDE9000100F03EFC42468246D6
:404E40008B464B463046294600F034FC02460B465046594601F072F8002840F0D8812F463B154FF48012A3F2FE3342FA03F32344C3F30A52A54EA2F2FF321641C3F3130B03
:404E80000020C2F1140523EA06014BF4801B02460B46002C4BFA05FB40464946B8BFCBF1000B00F007FC02460B4680468946DDE9000100F001FC4FEA0B5A00247EA3D3E947
:404EC000002320460D4600F0A9FD424606460F464B462046294600F0EDFB02460B46DDE9000100F0E7FB76A3D3E9002300F096FD75A3D3E90023804689462046294600F0DB
:404F00008DFD02460B464046494600F0D5FB8046894602460B463046394600F0CDFB32463B4604460D4600F0C5FB02460B464046494600F0BFFB2246804689462B4620462C
:404F4000294600F06BFD62A3D3E9002306460F4600F064FD60A3D3E9002300F0ABFB32463B4600F05BFD5EA3D3E9002300F0A4FB32463B4600F052FD5BA3D3E9002300F067
:404F800099FB32463B4600F049FD59A3D3E9002300F092FB32463B4600F040FD02460B462046294600F086FB06460F4602460B462046294600F032FD0022CDE900014FF08B
:404FC00080433046394600F075FB02460B46DDE9000100F04DFE424606460F464B462046294600F01BFD42464B4600F065FB02460B463046394600F05DFB22462B4600F05F
:4050000059FB02460B4600203D4900F053FB8A44BAF5801FC0F237815146DDE9042300F0FDFC834618E4F346354915E44A4648463B46394600F0F2FC83460DE4344B21F0F1
:4050400000479F4240F30181324B0B4403430CD142464B4600F02EFB02460B46DDE9000100F058FF00283FF4FBAE23A3D3E90023DDE9040100F0D2FC1FA3D3E9002300F0C8
:40508000CDFC8346FFF7E8BBBAF1000FBFF6AEACDDE900349B4604F10041FFF7DDBB02460B460020164900F0E3FD41E4AFF30080FE822B654715973C00000000432EE63F59
:4050C000EF39FAFE422EE63F396CA80C615C20BED0A4BE726937663EF16BD2C541BDBB3E2CDE25AF6A56113F93BDBE166CC1663F3E5555555555C53F59F3F8C21F6EA5012D
:405100000000F03F0000F0BFFFFF8F40FFFF0F00FFCB904000346F3F6F4B9E427FF763AC6E4B9E423FF7EEAB00226C4B00F0C2FA5BA3D3E9002306460F4600F06FFC5AA359
:40514000D3E90023804689463046394600F066FC002282468B46624B3046394600F05EFC02460B4652A1D1E9000100F0A3FA32463B4600F053FC02460B460020594900F076
:4051800099FA3246CDE902013B463046394600F045FC02460B46DDE9020100F03FFC46A3D3E9002300F03AFC02460B465046594600F080FA02460B4606460F464046494682
:4051C00000F07AFA42464B46002082468B4600F071FA02460B463046394600F06BFA80468946D9E500220023CDE90823CDE90C233A4B00220026CDE906233DE44A463B46FF
:405200000020364900F034FD8346FFF725BB2CA3D3E90023DDE9040100F000FC28A3D3E9002300F0FBFB8346FFF716BBBEF1000F7FF44FABC3F1140348FA03F202FA03F36B
:40524000984524D07446FFF721BB264B9F423FF707AEDDE902349A469B462EE602460B46FFF7B9BB204B4FF48026CDE9062316A3D3E90023CDE9082315A3D3E90023CDE9C7
:405280000C23FFF7F9BB5A4600F096F9C5E602F00102C2F10204FFF7F9BA00BFAFF30080000000604715F73F44DF5DF80BAE543E555555555555D53FFE822B654715F73FAA
:4052C0009C7500883CE4377E0000004003B8E23F06D0CF43EBFD4C3EFEFFEF3F0000F03F0000D03F0000E03F0000F83F2DE9F0415F4E0C46B6460E407645054600F098806D
:4053000000290B46024674DD5FEA215E7FD0AEF2FF3EC3F313031EF0010F43F4801363D100273E4603EBD2710B444FEA6E0E520016204FF4001174189C424FEAD2754FEA9F
:40534000420202DC1B1B66180F44013805EB43034FEA5101EFD1844620244FF0004109E020D003EBD275013C4FEA51012B444FEA420220D09E4201EB0C05F1DA002D05EB45
:40538000010C09DBB0469542A3EB060300D9013B4646521B0844E4E7BCF1000FF2DB06F10108F0E7954217D8002D05EB010C49DB98460023ECE7134310D140087B1003F12D
:4053C0007F5303F50013FA0703EB0E57394648BF40F00040BDE8F0813346C2E7411C35D000F001031844E8E75B0003EBD273520096E721F000460643ECD079BB8E46D30A2F
:40540000AEF1150E5205002BF9D0DD0221D4002100E001465B00DC0201F10100F9D5C0F1200422FA04F42343C1EB0E0E82406EE702460B4600F0F2FA2A46234600F03CF9A8
:40544000BDE8F081BCF1000FA9DAB1E701372046B4E720244FF0FF310020E2E702460B4600F028F902460B4600F002FCB2E700BF0000F07F21F00041704700BF41F0004138
:4054800001F58010C00F70470020704700200149704700BF0000F87FF0B5C1F30A5EAEF2FF36132E83B002460B460C464FEAD17507462EDC002E49DB3D49314103EA0100AF
:4054C00010432BD049080B4053EA02070CD04FF48023132E24EA010143FA06F444EA01040CBF4FF000470027324B214603EBC505D5E90045384622462B4600F0DDF8CDE916
:405500000001DDE9000122462B4600F0D3F803B0F0BD332E06DDB6F5806F45D01046194603B0F0BDAEF2134E4FF0FF3121FA0EF10842F3D049080842D6D04FF0804320EAC3
:40554000010143FA0EFE4EEA0107CDE721F0004101431946E4D0C3F3130343EA000CCCF1000343EA0C0C134B640C4FEA1C3C0CF4002C03EBC5036404D3E900674CEA040132
:4055800032463B4600F098F8CDE90001DDE9000132463B4600F08EF8024621F0004141EAC57310461946BBE700F086F8B8E700BFFFFF0F00C0F20000F8B5C1F30A5604469B
:4055C0000D460B46174606BB21F00043034325D000222F4B00F022FA2E4A044697420D460B462ADBC1F30A56363E40F2FE723E44964228DC002E12DD23F0FF4323F4E0037A
:4056000043EA065520462946F8BD40F2FF729642EBD102460B4600F04FF8F8BDF8BD16F1350F1DDA4CF250339F420CDC14A1D1E9000122462B4600F031F811A3D3E9002326
:4056400000F0ECF9F8BD22460FA1D1E900012B4600F024F80CA3D3E9002300F0DFF9F8BD23F0FF4323F4E003363643EA0655204629460022084B00F0D1F9F8BDAFF3008027
:4056800059F3F8C21F6EA5019C7500883CE4377E00005043B03CFFFF0000903C03F0004321F0004242EA0301704700BF81F0004102E000BF83F0004330B54FEA41044FEA26
:4056C000430594EA050F08BF90EA020F1FBF54EA000C55EA020C7FEA645C7FEA655C00F0E2804FEA5454D4EB5555B8BF6D420CDD2C4480EA020281EA030382EA000083EAE3
:40570000010180EA020281EA0303362D88BF30BD11F0004F4FEA01314FF4801C4CEA113102D0404261EB410113F0004F4FEA03334CEA133302D0524263EB430394EA050F34
:4057400000F0A780A4F10104D5F1200E0DDB02FA0EFC22FA05F2801841F1000103FA0EF2801843FA05F359410EE0A5F120050EF1200E012A03FA0EFC28BF4CF0020C43FADE
:4057800005F3C01851EBE37101F0004507D54FF0000EDCF1000C7EEB00006EEB0101B1F5801F1BD3B1F5001F0CD349085FEA30004FEA3C0C04F101044FEA445212F5800F0C
:4057C00080F09A80BCF1004F08BF5FEA500C50F1000041EB045141EA050130BD5FEA4C0C404141EB010111F4801FA4F10104E9D191F0000F04BF01460020B1FA81F308BFEF
:405800002033A3F10B03B3F120020CDA0C3208DD02F1140CC2F10C0201FA0CF021FA02F10CE002F11402D8BFC2F1200C01FA02F120FA0CFCDCBF41EA0C019040E41AA2BF4E
:4058400001EB0451294330BD6FEA04041F3C1CDA0C340EDC04F11404C4F1200220FA04F001FA02F340EA030021FA04F345EA030130BDC4F10C04C4F1200220FA02F001FACE
:4058800004F340EA0300294630BD21FA04F0294630BD94F0000F83F4801306BF81F480110134013D4EE77FEA645C18BF7FEA655C29D094EA050F08BF90EA020F05D054EAD3
:4058C000000C04BF1946104630BD91EA030F1EBF0021002030BD5FEA545C05D14000494128BF41F0004130BD14F580043CBF01F5801130BD01F0004545F0FE4141F4700174
:405900004FF0000030BD7FEA645C1ABF194610467FEA655C1CBF0B46024650EA013406BF52EA033591EA030F41F4002130BD00BF90F0000F04BF0021704730B54FF4806479
:4059400004F132044FF000054FF0000150E700BF90F0000F04BF0021704730B54FF4806404F1320410F0004548BF40424FF000013EE700BF42004FEAE2014FEA31014FEA2D
:4059800002701FBF12F07F4393F07F4F81F06051704792F0000F14BF93F07F4F704730B54FF4607401F0004521F0004120E700BF50EA010208BF704730B54FF000050AE025
:4059C00050EA010208BF704730B511F0004502D5404261EB41014FF4806404F132045FEA915C3FF4DCAE4FF003025FEADC0C18BF03325FEADC0C18BF033202EBDC02C2F159
:405A0000200300FA03FC20FA02F001FA03FE40EA0E0021FA02F11444C1E600BF70B54FF0FF0C4CF4E06C1CEA11541DBF1CEA135594EA0C0F95EA0C0F00F0DEF82C4481EABA
:405A4000030621EA4C5123EA4C5350EA013518BF52EA033541F4801143F4801338D0A0FB02CE4FF00005E1FB02E506F00042E0FB03E54FF00006E1FB03569CF0000F18BF1D
:405A80004EF0010EA4F1FF04B6F5007F64F5407404D25FEA4E0E6D4146EB060642EAC62141EA55514FEAC52040EA5E504FEACE2EB4F1FD0C88BFBCF5E06F1ED8BEF1004F6C
:405AC00008BF5FEA500E50F1000041EB045170BD06F0004646EA010140EA020081EA0301B4EB5C04C2BFD4EB0C0541EA045170BD41F480114FF0000E013C00F3AB8014F1D0
:405B0000360FDEBF002001F0004170BDC4F10004203C35DA0C341BDC04F11404C4F1200500FA05F320FA04F001FA05F240EA020001F0004221F0004110EBD37021FA04F6CC
:405B400042EB06015EEA430E08BF20EAD37070BDC4F10C04C4F1200500FA04F320FA05F001FA04F240EA020001F0004110EBD37041F100015EEA430E08BF20EAD37070BDDE
:405B8000C4F1200500FA05F24EEA020E20FA04F301FA05F243EA020321FA04F001F0004121FA04F220EA020000EBD3705EEA430E08BF20EAD37070BD94F0000F0FD101F0D3
:405BC0000046400041EB010111F4801F08BF013CF7D041EA060195F0000F18BF704703F00046520043EB030313F4801F08BF013DF7D043EA0603704794EA0C0F0CEA135519
:405C000018BF95EA0C0F0CD050EA410618BF52EA4306D1D181EA030101F000414FF0000070BD50EA410606BF1046194652EA430619D094EA0C0F02D150EA013613D195EAE2
:405C40000C0F05D152EA03361CBF104619460AD181EA030101F0004141F0FE4141F470014FF0000070BD41F0FE4141F4780170BD70B54FF0FF0C4CF4E06C1CEA11541DBFA3
:405C80001CEA135594EA0C0F95EA0C0F00F0A7F8A4EB050481EA030E52EA03354FEA013100F088804FEA03334FF0805545EA131343EA12634FEA022245EA111545EA1065F9
:405CC0004FEA00260EF000419D4208BF964244F1FD0404F5407402D25B084FEA3202B61A65EB03055B084FEA32024FF480104FF4002CB6EB020E75EB030E22BFB61A754639
:405D000040EA0C005B084FEA3202B6EB020E75EB030E22BFB61A754640EA5C005B084FEA3202B6EB020E75EB030E22BFB61A754640EA9C005B084FEA3202B6EB020E75EB44
:405D4000030E22BFB61A754640EADC0055EA060E18D04FEA051545EA16754FEA06164FEAC30343EA52734FEAC2025FEA1C1CC0D111F4801F0BD141EA00014FF000004FF0D9
:405D8000004CB6E711F4801F04BF01430020B4F1FD0C88BFBCF5E06F3FF6AFAEB5EB030C04BFB6EB020C5FEA500C50F1000041EB045170BD0EF0004E4EEA113114EB5C04CE
:405DC000C2BFD4EB0C0541EA045170BD41F480114FF0000E013C90E645EA060E8DE60CEA135594EA0C0F08BF95EA0C0F3FF43BAF94EA0C0F0AD150EA01347FF434AF95EAFC
:405E00000C0F7FF425AF104619462CE795EA0C0F06D152EA03353FF4FDAE1046194622E750EA410618BF52EA43067FF4C5AE50EA41047FF40DAF52EA43057FF4EBAE12E7BD
:405E40004FF0FF3C06E000BF4FF0010C02E000BF4FF0010C4DF804CD4FEA410C7FEA6C5C4FEA430C18BF7FEA6C5C1BD001B050EA410C0CBF52EA430C91EA030F02BF90EA2C
:405E8000020F0020704710F1000F91EA030F58BF994208BF90422CBFD8176FEAE37040F0010070474FEA410C7FEA6C5C02D150EA013C07D14FEA430C7FEA6C5CD6D152EAEF
:405EC000033CD3D05DF8040B704700BF8446104662468C461946634600E000BF01B5FFF7B7FF002848BF10F1000F01BD4DF808EDFFF7F4FF0CBF012000205DF808FB00BF00
:405F00004DF808EDFFF7EAFF34BF012000205DF808FB00BF4DF808EDFFF7E0FF94BF012000205DF808FB00BF4DF808EDFFF7CEFF94BF012000205DF808FB00BF4DF808ED61
:405F4000FFF7C4FF34BF012000205DF808FB00BF4FEA410C7FEA6C5C02D150EA013C0AD14FEA430C7FEA6C5C02D152EA033C02D14FF0000070474FF0010070474FEA4102FE
:405F8000B2F1E04324BFB3F5001CDCF1FE5C0DD901F0004C4FEAC0024CEA5070B2F1004F40EB830008BF20F00100704711F0804F21D113F13872BCBF01F00040704741F402
:405FC00080114FEA5252C2F11802C2F1200C10FA0CF320FA02F018BF40F001004FEAC1234FEAD32303FA0CFC40EA0C0023FA02F34FEA4303CCE77FEA625307D150EA01333B
:406000001EBF4FF0FE4040F44000704701F0004040F0FE4040F40000704700BF80F0004002E000BF81F0004142001FBF5FEA410392EA030F7FEA226C7FEA236C6AD04FEAF2
:406040001262D2EB1363C1BFD218414048404140B8BF5B42192B88BF704710F0004F40F4000020F07F4018BF404211F0004F41F4000121F07F4118BF494292EA030F3FD02E
:40608000A2F1010241FA03FC10EB0C00C3F1200301FA03F100F0004302D5494260EB4000B0F5000F13D3B0F1807F06D340084FEA310102F10102FE2A51D2B1F1004F40EB00
:4060C000C25008BF20F0010040EA03007047490040EB000010F4000FA2F10102EDD1B0FA80FCACF1080CB2EB0C0200FA0CF0AABF00EBC25052421843BCBFD040184370478D
:4061000092F0000F81F4000106BF80F400000132013BB5E74FEA41037FEA226C18BF7FEA236C21D092EA030F04D092F0000F08BF0846704790EA010F1CBF0020704712F0E3
:406140007F4F04D1400028BF40F00040704712F100723CBF00F50000704700F0004343F0FE4040F4000070477FEA226216BF08467FEA23630146420206BF5FEA412390EA0D
:40618000010F40F4800070474FF0000304E000BF10F0004348BF40425FEA000C08BF704743F0964301464FF000001CE050EA010208BF70474FF000030AE000BF50EA01026F
:4061C00008BF704711F0004302D5404261EB41015FEA010C02BF84460146002043F0B64308BFA3F18053A3F50003BCFA8CF2083AA3EBC25310DB01FA02FC634400FA02FC1D
:40620000C2F12002BCF1004F20FA02F243EB020008BF20F00100704702F1200201FA02FCC2F1200250EA4C0021FA02F243EB020008BF20EADC7070474FF0FF0C1CEAD052D2
:406240001EBF1CEAD15392EA0C0F93EA0C0F6FD01A4480EA010C400218BF5FEA41211ED04FF0006343EA501043EA5111A0FB01310CF00040B1F5000F3EBF490041EAD371F1
:406280005B0040EA010062F17F02FD2A1DD8B3F1004F40EBC25008BF20F00100704790F0000F0CF0004C08BF49024CEA502040EA51207F3AC2BFD2F1FF0340EAC25070478D
:4062C00040F400004FF00003013A5DDC12F1190FDCBF00F000407047C2F10002410021FA02F1C2F1200200FA02FC5FEA310040F1000053EA4C0308BF20EADC70704792F0A9
:40630000000F00F0004C02BF400010F4000F013AF9D040EA0C0093F0000F01F0004C02BF490011F4000F013BF9D041EA0C018FE70CEAD15392EA0C0F18BF93EA0C0F0AD02A
:4063400030F0004C18BF31F0004CD8D180EA010000F00040704790F0000F17BF90F0004F084691F0000F91F0004F14D092EA0C0F01D142020FD193EA0C0F03D14B0218BF8F
:40638000084608D180EA010000F0004040F0FE4040F40000704740F0FE4040F4400070474FF0FF0C1CEAD0521EBF1CEAD15392EA0C0F93EA0C0F69D0A2EB030280EA010C3F
:4063C00049024FEA402037D04FF0805343EA111143EA10130CF000408B4238BF5B0042F17D024FF4000C8B4224BF5B1A40EA0C00B3EB510F24BFA3EB510340EA5C00B3EB63
:40640000910F24BFA3EB910340EA9C00B3EBD10F24BFA3EBD10340EADC001B0118BF5FEA1C1CE0D1FD2A3FF650AF8B4240EBC25008BF20F0010070470CF0004C4CEA502021
:406440007F32C2BFD2F1FF0340EAC250704740F400004FF00003013A37E792F0000F00F0004C02BF400010F4000F013AF9D040EA0C0093F0000F01F0004C02BF490011F46A
:40648000000F013BF9D041EA0C0195E70CEAD15392EA0C0F08D142027FF47DAF93EA0C0F7FF470AF084676E793EA0C0F04D14B023FF44CAF08466EE730F0004C18BF31F0E3
:4064C000004CCAD130F000427FF45CAF31F000437FF43CAF5FE700BF4FF0FF3C06E000BF4FF0010C02E000BF4FF0010C4DF804CD4FEA40024FEA41037FEA226C18BF7FEA71
:40650000236C11D001B052EA530C18BF90EA010F58BFB2EB030088BFC81738BF6FEAE17018BF40F0010070477FEA226C02D15FEA402C05D17FEA236CE4D15FEA412CE1D098
:406540005DF8040B704700BF844608466146FFE70FB5FFF7C9FF002848BF10F1000F0FBD4DF808EDFFF7F4FF0CBF012000205DF808FB00BF4DF808EDFFF7EAFF34BF01209C
:4065800000205DF808FB00BF4DF808EDFFF7E0FF94BF012000205DF808FB00BF4DF808EDFFF7D2FF94BF012000205DF808FB00BF4DF808EDFFF7C8FF34BF012000205DF8BE
:4065C00008FB00BF002101F015BA00BF0A22002101F0ACBA014B1868704700BF488AFF1F70B50F4E0F4D761BB61018BF002405D0013455F8043B9847A642F9D10A4E0B4D5C
:4066000009F064F8761BB61018BF002406D0013455F8043B9847A642F9D170BD70BD00BFD8F60000D8F60000E4F60000D8F60000032A70B426D940EA01039B0711D00478B1
:406640000D78AC4222D10244431C05E013F8014B11F8015FAC4219D19342F7D1002070BC70470C4603461E6825681846AE42214603F1040304F10404E1D1043A032A18461C
:406680002146F0D8002ADAD11046E8E7601B70BC704700BF844641EA000313F0030349D1403A23D30B6803604B6843608B688360CB68C3600B6903614B6943618B698361A9
:4066C000CB69C3610B6A03624B6A43628B6A8362CB6AC3620B6B03634B6B43638B6B8363CB6BC36340304031403ADBD230320BD30B6803604B6843608B688360CB68C360CA
:4067000010301031103AF3D20C3205D351F8043B40F8043B043AF9D2043208D0D2071CBF11F8013B00F8013B01D30B8803806046704700BF082A13D38B07B1D010F0030339
:40674000AED0C3F10403D21ADB071CBF11F8013B00F8013BA4D331F8023B20F8023B9FE7043AD9D3013A11F8013B00F8013BF9D20B7803704B7843708B78837060467047DE
:4067800070B4840746D0541E002A41D0CDB2034602E0621EE4B3144603F8015B9A07F8D1032C2ED9CDB245EA05250F2C45EA054519D9264603F11002103E0F2E42F8105C34
:4067C00042F80C5C42F8085C42F8045C02F11002F2D8A4F1100222F00F0204F00F041032032C13440DD91E462246043A032A46F8045BFAD8221F22F003020432134404F0F2
:4068000003042CB1C9B21C4403F8011BA342FBD170BC704714460346C2E700BF0FB410B5074B82B004AC54F8042B186823468168019402F035FD02B0BDE8104004B070470F
:40684000488AFF1F0EB40146F0B54FF6FF779CB021AC54F8042B0D4823466FF00045029106914FF4027602A900680194ADF81670ADF814600495079501F064F9029B0022B6
:406880001A701CB0BDE8F04003B07047488AFF1F70B411F0FF0434D085070FD00378002B5AD09C422BD0431C05E013F8012B002A4FD0944223D09A071846F6D10E0206F4B6
:4068C0007F462643036846EA064601E050F8043F86EA0305A5F10132A3F1013122EA050221EA0303134313F0803FEFD0037823B932E010F8013F002B2ED09C42F9D170BC67
:40690000704784070BD00378002BF8D0431C03E002780133002AF2D099071846F8D10268A2F1013323EA020313F0803F08D150F8042FA2F1013323EA020313F0803FF6D06F
:406940000378002BDBD010F8013F002BFBD170BC7047104670BC7047184670BC704700BF80EA0102844612F0030F4FD111F0030F32D14DF8044D11F0040F51F8043B0BD0DD
:40698000A3F101329A4312F0803F04BF4CF8043B51F8043B16D100BF51F8044BA3F101329A4312F0803FA4F101320BD14CF8043BA24312F0803F04BF51F8043B4CF8044B56
:4069C000EAD023460CF8013B13F0FF0F4FEA3323F8D15DF8044B704711F0010F06D011F8012B0CF8012B002A08BF704711F0020FBFD031F8022B12F0FF0F16BF2CF8022B4F
:406A00008CF8002012F47F4FB3D1704711F8012B0CF8012B002AF9D1704700BF20F0030110F00300C0F1000051F8043B00F1040C4FEACC0C6FF000021CBF22FA0CF21343C6
:406A40004FF0010C4CEA0C2C4CEA0C4CA3EB0C0222EA030212EACC1204BF51F8043B0430F4D0C2F1000102EA0102B2FA82F2C2F11F0200EBD200704740EA01039B0770B405
:406A80002BD1032A29D90C460346214654F8046BA6F1013525EA060515F0803F06D1043A032A43F8046B2146EFD8A2B10C78013A1C70013101333CB16AB111F8014B013A8D
:406AC00003F8014B002CF7D12AB11A44002103F8011B9A42FBD170BC70470346E5E700BF2DE9F0410F46904606F0F0FC04460D46B8F1000F11D0C7F30A53C3F16B03002B9D
:406B00000BDD1B0503F17F55002405F5401522462B46FEF783FFBDE8F08120462946BDE8F08100BF000000002DE9F04F0E4683469FB005920B4600220021CDE9021200222A
:406B400019961A921A4613F8017B2D2F00F2EE80DFE817F02E00EC00EC00EC00EC00EC00EC00EC00EC00DB00DB00DB00DB00DB00EC00EC00EC00EC00EC00EC00EC00EC0014
:406B8000EC00EC00EC00EC00EC00EC00EC00EC00EC00EC00DB00EC00EC00EC00EC00EC00EC00EC00EC00EC00EC004400EC00D800059B4FF000094FF0000A53B10023069391
:406BC000059B1E60069B23B149460AF1004389469A46484651461FB0BDE8F08F00230693541C19945778002FE2D0302F00F0A48008944FF0000AA7F130034FF00008092B47
:406C000045462346444619D8082CC8BF08EB880805EB850203F1010307EB42021993C4BF07EB4807A7F130081F78D8BFA2F13005A7F13002092A04F10104E5D958460793DF
:406C400005F0C8FDD0F80090584605F0C3FD0068FFF7E4FE079B02464946184606F0E8FD8146002800F0E280002084468646A146652F73D0452F71D00023B9F1000F46D061
:406C8000B9F1100FCA46CCEB03032846A8BF4FF0100A0A93FEF74CFE002C08BF4C46BAF1090FCDE9020113DD724B03EBCA0353E91223FEF7B3FE064640460F46FEF738FE62
:406CC00002460B4630463946FEF7F6FCCDE90201B9F10F0F00F3D6800A9B002B00F0A38040F35A850A98162800F39784DDE90223604901EBC001D1E90001FEF78FFE81462D
:406D00008A460DE0012306936AE719931AE718B9BAF1000F00F0A0824FF000094FF0000A059B002B3FF44EAF199E49E70023302F144606937FF45CAF6378582B00F04683C1
:406D4000782B00F04383013419942778302FFAD0002FE1D008944FF0010A4CE7B9F1000F00F00682199E731C199377782B2F00F06A822D2F00F0618200230793A7F1300318
:406D8000092B00F21982302F05D1199B013319931F78302FFAD0A7F13103082B3FF66CAF199B19460A46013219920A93A7F130034F78A7F1300109290BD80132199203EB20
:406DC000830307EB43031778303BA7F130010929F3D90A99521A082A00F3168444F61F629342A8BF1346079A002A3FF446AF5B42B9F1000F7FF444AF89E719A81E4905F0BA
:406E000007FC00283FF4D4AE199B19A8013B1B49199305F0FDFB10B9199B01331993184B039300230293DDE9029A79E7584605F0D1FC0068FFF7F2FD199A13181993175C4A
:406E4000002C40F0E881302F204605D1013319931F780130302FF9D0A7F13103082B40F23C84652F00F080814FF00009CC464FF0010EFFE6D0F500001CF4000020F40000F6
:406E80000000F07F0A9BCAEB090A9A44BAF1000F40F361831AF00F000AD0DDE90223BA4901EBC001D1E90001FEF7B8FDCDE902013AF00F0640F028820023079300954B469F
:406EC00022460899584606F065F80E90002800F0C2820A9A0021002AC2F10003A8BF0B460F468A460B9322EAE2730A930E9C5846616805F0DDFF8046002800F0D282DDE9A6
:406F00000223214615461E4622690C31023292000C30CDE90856FFF7BDFB1CA81BA901902A4633460091584606F05CFB1A90002800F044840121584606F0C6F80746002889
:406F400000F0AF821B9B002BC0F22A810B9A0A99D51807981C9A1B1A13448C48013B8342C2F1360280F2E780C01A1F28A2EB000200F31A81012383400D9300230F93AE18B3
:406F8000B5422B46A8BF33460A4407998C18A342A8BF2346002B02DDF61AE41AED1A0B9BBBB139461A46584606F036F90746002800F0778201461A9A584606F08FF80028D3
:406FC00000F06F820C901A99584605F099FF0C9B1A93002E08DD32461A99584606F06CF91A90002800F0EA830A9B43B141460A9A584606F011F98046002800F05282002C3C
:4070000008DD41462246584606F056F98046002800F04782002D08DD39462A46584606F04BF90746002800F03C8242461A99584606F0B8F98246002800F03382C368002690
:407040003946C6600C9306F08DF9B042C0F2B98300F00A843946504606F018FB00224FF0804304460D46FEF755FF002868D00C9B002B00F0AD80039B454D9946444B0D963A
:4070800000240F934A46434E434B16409E4200F0B881079B33B3B6F1D46F23D838A3D3E90023DDF83C900D984946FEF733FFB0B10D98494607F0F2FA002800F0D082FEF702
:4070C00037FC0D900F910C9B002B40F0C3820D9B12930F9B03F100431393DDE9124505F1D6639D1BDDE9080106F0F0F902460B4620462946FEF792FCDDE90823FEF7DCFAA6
:407100000C46CDE90201079B23B9224B23409E4200F0E8811A99584605F0F2FE4146584605F0EEFE3946584605F0EAFE5146584605F0E6FEDAE600230F9301230D931EE72B
:40714000164B204629460022FEF768FC0C9B0D900F91002B37D101F1004310901193039BDDE9104599468DE74FF0000C4FF0010E00286ED1BAF1000F3FF41AAD8146F1E571
:407180000000C0FFFFFFDF41D0F5000002FCFFFF0000F03F0000F07F0000E07F0000E03F0A9A0B9DD11AD4E6B0480124C01A04FA00F30F930D94E2E619960023B9F1000FA6
:4071C0007FF45EADA3E50D9A0F9BCDE91023C6E7DDE90212002940F0DB80C2F313039146002B40F0DB800022A14B20462946FEF787FE002840F05F839E4B20462946002245
:40720000FEF70CFC01F100430D900F9116901793DDE9164536E74846A1468446A7F13003092B13D8421C1F46002B40F02D821046199A531C19935778F0E701230793B31C04
